{
	"data": {
		"bytecode": {
			"linkReferences": {
				"remix_tests.sol": {
					"Assert": [
						{
							"length": 20,
							"start": 1484
						},
						{
							"length": 20,
							"start": 1746
						},
						{
							"length": 20,
							"start": 2008
						},
						{
							"length": 20,
							"start": 2270
						},
						{
							"length": 20,
							"start": 2618
						},
						{
							"length": 20,
							"start": 2880
						},
						{
							"length": 20,
							"start": 3142
						},
						{
							"length": 20,
							"start": 4488
						}
					]
				}
			},
			"object": "60806040526000600355600060045534801561001a57600080fd5b50336000806101000a81548173ffffffffffffffffffffffffffffffffffffffff021916908373ffffffffffffffffffffffffffffffffffffffff160217905550613d118061006a6000396000f3fe60806040523480156200001157600080fd5b5060043610620000945760003560e01c80638da5cb5b11620000635780638da5cb5b14620001315780639b0a6c951462000153578063ceb14098146200015f578063dd90528214620001955762000094565b80634989197914620000995780635f0de09d14620000cf57806360eb923814620000ef57806382874a451462000125575b600080fd5b620000b76004803603810190620000b191906200155f565b620001a1565b604051620000c69190620019db565b60405180910390f35b620000ed6004803603810190620000e79190620015e4565b6200032b565b005b6200010d6004803603810190620001079190620015e4565b6200040a565b6040516200011c9190620018b3565b60405180910390f35b6200012f62000560565b005b6200013b620009aa565b6040516200014a919062001852565b60405180910390f35b6200015d620009ce565b005b6200017d60048036038101906200017791906200148b565b62000c75565b6040516200018c9190620019db565b60405180910390f35b6200019f62001036565b005b60008060009054906101000a900473ffffffffffffffffffffffffffffffffffffffff1673ffffffffffffffffffffffffffffffffffffffff163373ffffffffffffffffffffffffffffffffffffffff161462000235576040517f08c379a00000000000000000000000000000000000000000000000000000000081526004016200022c9062001997565b60405180910390fd5b60008383604051620002479062001280565b62000254929190620018d7565b604051809103906000f08015801562000271573d6000803e3d6000fd5b5090507f5ff53bd33bf36207d7acda03c1a1a4cfcf933c64c16b5dfab56948dbd6a6f1d8308285604051620002a9939291906200186f565b60405180910390a160036000815480929190620002c69062001d6f565b91905055508060016000600354815260200190815260200160002060006101000a81548173ffffffffffffffffffffffffffffffffffffffff021916908373ffffffffffffffffffffffffffffffffffffffff16021790555060035491505092915050565b600354811062000372576040517f08c379a00000000000000000000000000000000000000000000000000000000081526004016200036990620019b9565b60405180910390fd5b6001600082815260200190815260200160002060009054906101000a900473ffffffffffffffffffffffffffffffffffffffff1673ffffffffffffffffffffffffffffffffffffffff16635fc8ea9a6040518163ffffffff1660e01b8152600401600060405180830381600087803b158015620003ee57600080fd5b505af115801562000403573d6000803e3d6000fd5b5050505050565b606060008054906101000a900473ffffffffffffffffffffffffffffffffffffffff1673ffffffffffffffffffffffffffffffffffffffff163373ffffffffffffffffffffffffffffffffffffffff16146200049d576040517f08c379a0000000000000000000000000000000000000000000000000000000008152600401620004949062001997565b60405180910390fd5b6001600083815260200190815260200160002060009054906101000a900473ffffffffffffffffffffffffffffffffffffffff1673ffffffffffffffffffffffffffffffffffffffff1663b294ef386040518163ffffffff1660e01b8152600401600060405180830381600087803b1580156200051957600080fd5b505af11580156200052e573d6000803e3d6000fd5b505050506040513d6000823e3d601f19601f820116820180604052508101906200055991906200150e565b9050919050565b73__$acbfb1c35000d78352310b16a054a6b106$__63abcd7960620005f06040518060400160405280600481526020017f74726565000000000000000000000000000000000000000000000000000000008152506040518060400160405280600481526020017f7061726b00000000000000000000000000000000000000000000000000000000815250620001a1565b60016040518363ffffffff1660e01b815260040162000611929190620019f8565b60206040518083038186803b1580156200062a57600080fd5b505af41580156200063f573d6000803e3d6000fd5b505050506040513d601f19601f82011682018060405250810190620006659190620014dc565b5073__$acbfb1c35000d78352310b16a054a6b106$__63abcd7960620006f66040518060400160405280600481526020017f74726565000000000000000000000000000000000000000000000000000000008152506040518060400160405280600481526020017f7061726b00000000000000000000000000000000000000000000000000000000815250620001a1565b60026040518363ffffffff1660e01b81526004016200071792919062001a7c565b60206040518083038186803b1580156200073057600080fd5b505af415801562000745573d6000803e3d6000fd5b505050506040513d601f19601f820116820180604052508101906200076b9190620014dc565b5073__$acbfb1c35000d78352310b16a054a6b106$__63abcd7960620007fc6040518060400160405280600481526020017f74726565000000000000000000000000000000000000000000000000000000008152506040518060400160405280600481526020017f7061726b00000000000000000000000000000000000000000000000000000000815250620001a1565b60036040518363ffffffff1660e01b81526004016200081d92919062001abe565b60206040518083038186803b1580156200083657600080fd5b505af41580156200084b573d6000803e3d6000fd5b505050506040513d601f19601f82011682018060405250810190620008719190620014dc565b5073__$acbfb1c35000d78352310b16a054a6b106$__63abcd7960620009026040518060400160405280600481526020017f74726565000000000000000000000000000000000000000000000000000000008152506040518060400160405280600481526020017f7061726b00000000000000000000000000000000000000000000000000000000815250620001a1565b60046040518363ffffffff1660e01b81526004016200092392919062001b00565b60206040518083038186803b1580156200093c57600080fd5b505af415801562000951573d6000803e3d6000fd5b505050506040513d601f19601f82011682018060405250810190620009779190620014dc565b506200098460006200032b565b6200099060016200032b565b6200099c60026200032b565b620009a860036200032b565b565b60008054906101000a900473ffffffffffffffffffffffffffffffffffffffff1681565b73__$acbfb1c35000d78352310b16a054a6b106$__63abcd796062000a5e6040518060400160405280600481526020017f74726565000000000000000000000000000000000000000000000000000000008152506040518060400160405280600481526020017f7061726b00000000000000000000000000000000000000000000000000000000815250620001a1565b60016040518363ffffffff1660e01b815260040162000a7f929190620019f8565b60206040518083038186803b15801562000a9857600080fd5b505af415801562000aad573d6000803e3d6000fd5b505050506040513d601f19601f8201168201806040525081019062000ad39190620014dc565b5073__$acbfb1c35000d78352310b16a054a6b106$__63abcd796062000b646040518060400160405280600581526020017f74726565320000000000000000000000000000000000000000000000000000008152506040518060400160405280600581526020017f7061726b32000000000000000000000000000000000000000000000000000000815250620001a1565b60026040518363ffffffff1660e01b815260040162000b8592919062001a7c565b60206040518083038186803b15801562000b9e57600080fd5b505af415801562000bb3573d6000803e3d6000fd5b505050506040513d601f19601f8201168201806040525081019062000bd99190620014dc565b5073__$acbfb1c35000d78352310b16a054a6b106$__63e8c2cb1662000c0060026200040a565b6040518263ffffffff1660e01b815260040162000c1e919062001912565b60206040518083038186803b15801562000c3757600080fd5b505af415801562000c4c573d6000803e3d6000fd5b505050506040513d601f19601f8201168201806040525081019062000c729190620014dc565b50565b60008060009054906101000a900473ffffffffffffffffffffffffffffffffffffffff1673ffffffffffffffffffffffffffffffffffffffff163373ffffffffffffffffffffffffffffffffffffffff161462000d09576040517f08c379a000000000000000000000000000000000000000000000000000000000815260040162000d009062001997565b60405180910390fd5b600080600062000d4e6040518060400160405280601981526020017f4d61646520697420696e746f207468652066756e6374696f6e00000000000000815250620011ba565b60005b8551811015620010175762000d9b6040518060400160405280600c81526020017f54657374696e6720547265650000000000000000000000000000000000000000815250620011ba565b85818151811062000db15762000db062001e1b565b5b602002602001015192506001600084815260200190815260200160002060009054906101000a900473ffffffffffffffffffffffffffffffffffffffff1673ffffffffffffffffffffffffffffffffffffffff166380007e836040518163ffffffff1660e01b8152600401602060405180830381600087803b15801562000e3757600080fd5b505af115801562000e4c573d6000803e3d6000fd5b505050506040513d601f19601f8201168201806040525081019062000e729190620014dc565b62000e825762000e8162001dbd565b5b6001600084815260200190815260200160002060009054906101000a900473ffffffffffffffffffffffffffffffffffffffff1673ffffffffffffffffffffffffffffffffffffffff1663a767bf6d6040518163ffffffff1660e01b8152600401602060405180830381600087803b15801562000efe57600080fd5b505af115801562000f13573d6000803e3d6000fd5b505050506040513d601f19601f8201168201806040525081019062000f39919062001616565b8462000f46919062001bfd565b93506103e88410620010015760019150600060405162000f66906200128e565b62000f719062001960565b604051809103906000f08015801562000f8e573d6000803e3d6000fd5b5090508060026000600454815260200190815260200160002060006101000a81548173ffffffffffffffffffffffffffffffffffffffff021916908373ffffffffffffffffffffffffffffffffffffffff1602179055506004600081548092919062000ffa9062001d6f565b9190505550505b80806200100e9062001d6f565b91505062000d51565b508062001029576200102862001dbd565b5b6004549350505050919050565b6000600467ffffffffffffffff81111562001056576200105562001e4a565b5b604051908082528060200260200182016040528015620010855781602001602082028036833780820191505090505b509050600081600081518110620010a157620010a062001e1b565b5b602002602001018181525050600181600181518110620010c657620010c562001e1b565b5b602002602001018181525050600281600281518110620010eb57620010ea62001e1b565b5b60200260200101818152505060038160038151811062001110576200110f62001e1b565b5b60200260200101818152505073__$acbfb1c35000d78352310b16a054a6b106$__63abcd7960620011418362000c75565b60016040518363ffffffff1660e01b81526004016200116292919062001a3a565b60206040518083038186803b1580156200117b57600080fd5b505af415801562001190573d6000803e3d6000fd5b505050506040513d601f19601f82011682018060405250810190620011b69190620014dc565b5050565b6200125481604051602401620011d19190620018b3565b6040516020818303038152906040527f41304fac000000000000000000000000000000000000000000000000000000007bffffffffffffffffffffffffffffffffffffffffffffffffffffffff19166020820180517bffffffffffffffffffffffffffffffffffffffffffffffffffffffff838183161783525050505062001257565b50565b60008151905060006a636f6e736f6c652e6c6f679050602083016000808483855afa5050505050565b610f3c806200204383390190565b610d5d8062002f7f83390190565b6000620012b3620012ad8462001b6b565b62001b42565b90508083825260208201905082856020860282011115620012d957620012d862001e7e565b5b60005b858110156200130d5781620012f288826200145d565b845260208401935060208301925050600181019050620012dc565b5050509392505050565b60006200132e620013288462001b9a565b62001b42565b9050828152602081018484840111156200134d576200134c62001e83565b5b6200135a84828562001cf4565b509392505050565b600062001379620013738462001b9a565b62001b42565b90508281526020810184848401111562001398576200139762001e83565b5b620013a584828562001d03565b509392505050565b600082601f830112620013c557620013c462001e79565b5b8135620013d78482602086016200129c565b91505092915050565b600081519050620013f1816200200e565b92915050565b600082601f8301126200140f576200140e62001e79565b5b81356200142184826020860162001317565b91505092915050565b600082601f83011262001442576200144162001e79565b5b81516200145484826020860162001362565b91505092915050565b6000813590506200146e8162002028565b92915050565b600081519050620014858162002028565b92915050565b600060208284031215620014a457620014a362001e8d565b5b600082013567ffffffffffffffff811115620014c557620014c462001e88565b5b620014d384828501620013ad565b91505092915050565b600060208284031215620014f557620014f462001e8d565b5b60006200150584828501620013e0565b91505092915050565b60006020828403121562001527576200152662001e8d565b5b600082015167ffffffffffffffff81111562001548576200154762001e88565b5b62001556848285016200142a565b91505092915050565b6000806040838503121562001579576200157862001e8d565b5b600083013567ffffffffffffffff8111156200159a576200159962001e88565b5b620015a885828601620013f7565b925050602083013567ffffffffffffffff811115620015cc57620015cb62001e88565b5b620015da85828601620013f7565b9150509250929050565b600060208284031215620015fd57620015fc62001e8d565b5b60006200160d848285016200145d565b91505092915050565b6000602082840312156200162f576200162e62001e8d565b5b60006200163f8482850162001474565b91505092915050565b620016538162001c5a565b82525050565b620016648162001ca4565b82525050565b620016758162001cb8565b82525050565b620016868162001ccc565b82525050565b620016978162001ce0565b82525050565b6000620016aa8262001bd0565b620016b6818562001bdb565b9350620016c881856020860162001d03565b620016d38162001e92565b840191505092915050565b6000620016eb8262001bd0565b620016f7818562001bec565b93506200170981856020860162001d03565b620017148162001e92565b840191505092915050565b60006200172e60098362001bec565b91506200173b8262001ea3565b602082019050919050565b60006200175560058362001bec565b9150620017628262001ecc565b602082019050919050565b60006200177c60068362001bec565b9150620017898262001ef5565b602082019050919050565b6000620017a360048362001bdb565b9150620017b08262001f1e565b602082019050919050565b6000620017ca601d8362001bec565b9150620017d78262001f47565b602082019050919050565b6000620017f160328362001bdb565b9150620017fe8262001f70565b604082019050919050565b60006200181860218362001bdb565b9150620018258262001fbf565b604082019050919050565b6200183b8162001c9a565b82525050565b6200184c8162001c9a565b82525050565b600060208201905062001869600083018462001648565b92915050565b600060608201905062001886600083018662001648565b62001895602083018562001648565b8181036040830152620018a981846200169d565b9050949350505050565b60006020820190508181036000830152620018cf81846200169d565b905092915050565b60006040820190508181036000830152620018f381856200169d565b905081810360208301526200190981846200169d565b90509392505050565b600060608201905081810360008301526200192e8184620016de565b90508181036020830152620019438162001746565b9050818103604083015262001958816200171f565b905092915050565b600060408201905081810360008301526200197b8162001794565b90508181036020830152620019908162001794565b9050919050565b60006020820190508181036000830152620019b281620017e2565b9050919050565b60006020820190508181036000830152620019d48162001809565b9050919050565b6000602082019050620019f2600083018462001830565b92915050565b600060608201905062001a0f600083018562001841565b62001a1e602083018462001659565b818103604083015262001a31816200176d565b90509392505050565b600060608201905062001a51600083018562001841565b62001a60602083018462001659565b818103604083015262001a7381620017bb565b90509392505050565b600060608201905062001a93600083018562001841565b62001aa260208301846200166a565b818103604083015262001ab5816200176d565b90509392505050565b600060608201905062001ad5600083018562001841565b62001ae460208301846200167b565b818103604083015262001af7816200176d565b90509392505050565b600060608201905062001b17600083018562001841565b62001b2660208301846200168c565b818103604083015262001b39816200176d565b90509392505050565b600062001b4e62001b61565b905062001b5c828262001d39565b919050565b6000604051905090565b600067ffffffffffffffff82111562001b895762001b8862001e4a565b5b602082029050602081019050919050565b600067ffffffffffffffff82111562001bb85762001bb762001e4a565b5b62001bc38262001e92565b9050602081019050919050565b600081519050919050565b600082825260208201905092915050565b600082825260208201905092915050565b600062001c0a8262001c9a565b915062001c178362001c9a565b9250827fffffffffffffffffffffffffffffffffffffffffffffffffffffffffffffffff0382111562001c4f5762001c4e62001dec565b5b828201905092915050565b600062001c678262001c7a565b9050919050565b60008115159050919050565b600073ffffffffffffffffffffffffffffffffffffffff82169050919050565b6000819050919050565b600062001cb18262001c9a565b9050919050565b600062001cc58262001c9a565b9050919050565b600062001cd98262001c9a565b9050919050565b600062001ced8262001c9a565b9050919050565b82818337600083830152505050565b60005b8381101562001d2357808201518184015260208101905062001d06565b8381111562001d33576000848401525b50505050565b62001d448262001e92565b810181811067ffffffffffffffff8211171562001d665762001d6562001e4a565b5b80604052505050565b600062001d7c8262001c9a565b91507fffffffffffffffffffffffffffffffffffffffffffffffffffffffffffffffff82141562001db25762001db162001dec565b5b600182019050919050565b7f4e487b7100000000000000000000000000000000000000000000000000000000600052600160045260246000fd5b7f4e487b7100000000000000000000000000000000000000000000000000000000600052601160045260246000fd5b7f4e487b7100000000000000000000000000000000000000000000000000000000600052603260045260246000fd5b7f4e487b7100000000000000000000000000000000000000000000000000000000600052604160045260246000fd5b600080fd5b600080fd5b600080fd5b600080fd5b600080fd5b6000601f19601f8301169050919050565b7f6e6f742072696768740000000000000000000000000000000000000000000000600082015250565b7f7061726b32000000000000000000000000000000000000000000000000000000600082015250565b7f4661696c65640000000000000000000000000000000000000000000000000000600082015250565b7f5465737400000000000000000000000000000000000000000000000000000000600082015250565b7f4661696c6564207768656e2067656e65726174696e6720637265646974000000600082015250565b7f43616e206f6e6c7920626520657865637574656420627920746865206f776e6560008201527f72206f6620746869732072656769737472790000000000000000000000000000602082015250565b7f4e6f20747265652069732061742074686520696e64657820726571756573746560008201527f6400000000000000000000000000000000000000000000000000000000000000602082015250565b620020198162001c6e565b81146200202557600080fd5b50565b620020338162001c9a565b81146200203f57600080fd5b5056fe60806040523480156200001157600080fd5b5060405162000f3c38038062000f3c833981810160405281019062000037919062000394565b336000806101000a81548173ffffffffffffffffffffffffffffffffffffffff021916908373ffffffffffffffffffffffffffffffffffffffff16021790555080600490805190602001906200008f92919062000266565b508160039080519060200190620000a892919062000266565b5060fa6005819055506200018f6040518060400160405280601481526020017f74726565206c6f63206f75747075742069733a2000000000000000000000000081525060048054620000fa9062000546565b80601f0160208091040260200160405190810160405280929190818152602001828054620001289062000546565b8015620001795780601f106200014d5761010080835404028352916020019162000179565b820191906000526020600020905b8154815290600101906020018083116200015b57829003601f168201915b50505050506200019760201b620005211760201c565b505062000635565b620002398282604051602401620001b09291906200045a565b6040516020818303038152906040527f4b5c4277000000000000000000000000000000000000000000000000000000007bffffffffffffffffffffffffffffffffffffffffffffffffffffffff19166020820180517bffffffffffffffffffffffffffffffffffffffffffffffffffffffff83818316178352505050506200023d60201b60201c565b5050565b60008151905060006a636f6e736f6c652e6c6f679050602083016000808483855afa5050505050565b828054620002749062000546565b90600052602060002090601f016020900481019282620002985760008555620002e4565b82601f10620002b357805160ff1916838001178555620002e4565b82800160010185558215620002e4579182015b82811115620002e3578251825591602001919060010190620002c6565b5b509050620002f39190620002f7565b5090565b5b8082111562000312576000816000905550600101620002f8565b5090565b60006200032d6200032784620004be565b62000495565b9050828152602081018484840111156200034c576200034b62000615565b5b6200035984828562000510565b509392505050565b600082601f83011262000379576200037862000610565b5b81516200038b84826020860162000316565b91505092915050565b60008060408385031215620003ae57620003ad6200061f565b5b600083015167ffffffffffffffff811115620003cf57620003ce6200061a565b5b620003dd8582860162000361565b925050602083015167ffffffffffffffff8111156200040157620004006200061a565b5b6200040f8582860162000361565b9150509250929050565b60006200042682620004f4565b620004328185620004ff565b93506200044481856020860162000510565b6200044f8162000624565b840191505092915050565b6000604082019050818103600083015262000476818562000419565b905081810360208301526200048c818462000419565b90509392505050565b6000620004a1620004b4565b9050620004af82826200057c565b919050565b6000604051905090565b600067ffffffffffffffff821115620004dc57620004db620005e1565b5b620004e78262000624565b9050602081019050919050565b600081519050919050565b600082825260208201905092915050565b60005b838110156200053057808201518184015260208101905062000513565b8381111562000540576000848401525b50505050565b600060028204905060018216806200055f57607f821691505b60208210811415620005765762000575620005b2565b5b50919050565b620005878262000624565b810181811067ffffffffffffffff82111715620005a957620005a8620005e1565b5b80604052505050565b7f4e487b7100000000000000000000000000000000000000000000000000000000600052602260045260246000fd5b7f4e487b7100000000000000000000000000000000000000000000000000000000600052604160045260246000fd5b600080fd5b600080fd5b600080fd5b600080fd5b6000601f19601f8301169050919050565b6108f780620006456000396000f3fe608060405234801561001057600080fd5b50600436106100ea5760003560e01c80638293989e1161008c578063a767bf6d11610066578063a767bf6d14610207578063b294ef3814610225578063bbb82d8914610243578063f51f96dd14610261576100ea565b80638293989e146101ad578063876924a2146101cb5780638da5cb5b146101e9576100ea565b8063516f279e116100c8578063516f279e146101495780635fc8ea9a14610167578063619b092d1461017157806380007e831461018f576100ea565b806302d05d3f146100ef5780631c3cf8691461010d578063466ccac01461012b575b600080fd5b6100f761027f565b60405161010491906106e5565b60405180910390f35b6101156102a5565b6040516101229190610774565b60405180910390f35b6101336102ab565b6040516101409190610700565b60405180910390f35b6101516102be565b60405161015e919061071b565b60405180910390f35b61016f61034c565b005b61017961038a565b6040516101869190610774565b60405180910390f35b610197610390565b6040516101a49190610700565b60405180910390f35b6101b56103a7565b6040516101c29190610774565b60405180910390f35b6101d36103ad565b6040516101e0919061071b565b60405180910390f35b6101f161043b565b6040516101fe91906106e5565b60405180910390f35b61020f61045f565b60405161021c9190610774565b60405180910390f35b61022d610469565b60405161023a919061071b565b60405180910390f35b61024b6104fb565b6040516102589190610700565b60405180910390f35b61026961050e565b6040516102769190610700565b60405180910390f35b600160009054906101000a900473ffffffffffffffffffffffffffffffffffffffff1681565b60025481565b600760019054906101000a900460ff1681565b600480546102cb90610826565b80601f01602080910402602001604051908101604052809291908181526020018280546102f790610826565b80156103445780601f1061031957610100808354040283529160200191610344565b820191906000526020600020905b81548152906001019060200180831161032757829003601f168201915b505050505081565b61036d604051806060016040528060298152602001610899602991396105bd565b6001600760006101000a81548160ff021916908315150217905550565b60065481565b6000600760009054906101000a900460ff16905090565b60055481565b600380546103ba90610826565b80601f01602080910402602001604051908101604052809291908181526020018280546103e690610826565b80156104335780601f1061040857610100808354040283529160200191610433565b820191906000526020600020905b81548152906001019060200180831161041657829003601f168201915b505050505081565b60008054906101000a900473ffffffffffffffffffffffffffffffffffffffff1681565b6000600554905090565b60606004805461047890610826565b80601f01602080910402602001604051908101604052809291908181526020018280546104a490610826565b80156104f15780601f106104c6576101008083540402835291602001916104f1565b820191906000526020600020905b8154815290600101906020018083116104d457829003601f168201915b5050505050905090565b600760009054906101000a900460ff1681565b600760029054906101000a900460ff1681565b6105b9828260405160240161053792919061073d565b6040516020818303038152906040527f4b5c4277000000000000000000000000000000000000000000000000000000007bffffffffffffffffffffffffffffffffffffffffffffffffffffffff19166020820180517bffffffffffffffffffffffffffffffffffffffffffffffffffffffff8381831617835250505050610656565b5050565b610653816040516024016105d1919061071b565b6040516020818303038152906040527f41304fac000000000000000000000000000000000000000000000000000000007bffffffffffffffffffffffffffffffffffffffffffffffffffffffff19166020820180517bffffffffffffffffffffffffffffffffffffffffffffffffffffffff8381831617835250505050610656565b50565b60008151905060006a636f6e736f6c652e6c6f679050602083016000808483855afa5050505050565b610688816107ab565b82525050565b610697816107bd565b82525050565b60006106a88261078f565b6106b2818561079a565b93506106c28185602086016107f3565b6106cb81610887565b840191505092915050565b6106df816107e9565b82525050565b60006020820190506106fa600083018461067f565b92915050565b6000602082019050610715600083018461068e565b92915050565b60006020820190508181036000830152610735818461069d565b905092915050565b60006040820190508181036000830152610757818561069d565b9050818103602083015261076b818461069d565b90509392505050565b600060208201905061078960008301846106d6565b92915050565b600081519050919050565b600082825260208201905092915050565b60006107b6826107c9565b9050919050565b60008115159050919050565b600073ffffffffffffffffffffffffffffffffffffffff82169050919050565b6000819050919050565b60005b838110156108115780820151818401526020810190506107f6565b83811115610820576000848401525b50505050565b6000600282049050600182168061083e57607f821691505b6020821081141561085257610851610858565b5b50919050565b7f4e487b7100000000000000000000000000000000000000000000000000000000600052602260045260246000fd5b6000601f19601f830116905091905056fe4d61646520697420696e746f20746865207665726966795472656520747265652066756e6374696f6ea26469706673582212204646b970f03ce3db50fa77352b470311044d1f8e6c16c1299e05bd10cb2f0ac264736f6c6343000807003360806040523480156200001157600080fd5b5060405162000d5d38038062000d5d83398181016040528101906200003791906200038c565b336000806101000a81548173ffffffffffffffffffffffffffffffffffffffff021916908373ffffffffffffffffffffffffffffffffffffffff16021790555080600490805190602001906200008f9291906200025e565b508160039080519060200190620000a89291906200025e565b50620001876040518060400160405280601481526020017f74726565206c6f63206f75747075742069733a2000000000000000000000000081525060048054620000f2906200053e565b80601f016020809104026020016040519081016040528092919081815260200182805462000120906200053e565b8015620001715780601f10620001455761010080835404028352916020019162000171565b820191906000526020600020905b8154815290600101906020018083116200015357829003601f168201915b50505050506200018f60201b6200040c1760201c565b50506200062d565b620002318282604051602401620001a892919062000452565b6040516020818303038152906040527f4b5c4277000000000000000000000000000000000000000000000000000000007bffffffffffffffffffffffffffffffffffffffffffffffffffffffff19166020820180517bffffffffffffffffffffffffffffffffffffffffffffffffffffffff83818316178352505050506200023560201b60201c565b5050565b60008151905060006a636f6e736f6c652e6c6f679050602083016000808483855afa5050505050565b8280546200026c906200053e565b90600052602060002090601f016020900481019282620002905760008555620002dc565b82601f10620002ab57805160ff1916838001178555620002dc565b82800160010185558215620002dc579182015b82811115620002db578251825591602001919060010190620002be565b5b509050620002eb9190620002ef565b5090565b5b808211156200030a576000816000905550600101620002f0565b5090565b6000620003256200031f84620004b6565b6200048d565b9050828152602081018484840111156200034457620003436200060d565b5b6200035184828562000508565b509392505050565b600082601f83011262000371576200037062000608565b5b8151620003838482602086016200030e565b91505092915050565b60008060408385031215620003a657620003a562000617565b5b600083015167ffffffffffffffff811115620003c757620003c662000612565b5b620003d58582860162000359565b925050602083015167ffffffffffffffff811115620003f957620003f862000612565b5b620004078582860162000359565b9150509250929050565b60006200041e82620004ec565b6200042a8185620004f7565b93506200043c81856020860162000508565b62000447816200061c565b840191505092915050565b600060408201905081810360008301526200046e818562000411565b9050818103602083015262000484818462000411565b90509392505050565b600062000499620004ac565b9050620004a7828262000574565b919050565b6000604051905090565b600067ffffffffffffffff821115620004d457620004d3620005d9565b5b620004df826200061c565b9050602081019050919050565b600081519050919050565b600082825260208201905092915050565b60005b83811015620005285780820151818401526020810190506200050b565b8381111562000538576000848401525b50505050565b600060028204905060018216806200055757607f821691505b602082108114156200056e576200056d620005aa565b5b50919050565b6200057f826200061c565b810181811067ffffffffffffffff82111715620005a157620005a0620005d9565b5b80604052505050565b7f4e487b7100000000000000000000000000000000000000000000000000000000600052602260045260246000fd5b7f4e487b7100000000000000000000000000000000000000000000000000000000600052604160045260246000fd5b600080fd5b600080fd5b600080fd5b600080fd5b6000601f19601f8301169050919050565b610720806200063d6000396000f3fe608060405234801561001057600080fd5b506004361061009e5760003560e01c8063876924a211610066578063876924a2146101395780638da5cb5b14610157578063b294ef3814610175578063bbb82d8914610193578063f51f96dd146101b15761009e565b806302d05d3f146100a35780631c3cf869146100c1578063466ccac0146100df578063516f279e146100fd578063619b092d1461011b575b600080fd5b6100ab6101cf565b6040516100b89190610537565b60405180910390f35b6100c96101f5565b6040516100d691906105c6565b60405180910390f35b6100e76101fb565b6040516100f49190610552565b60405180910390f35b61010561020e565b604051610112919061056d565b60405180910390f35b61012361029c565b60405161013091906105c6565b60405180910390f35b6101416102a2565b60405161014e919061056d565b60405180910390f35b61015f610330565b60405161016c9190610537565b60405180910390f35b61017d610354565b60405161018a919061056d565b60405180910390f35b61019b6103e6565b6040516101a89190610552565b60405180910390f35b6101b96103f9565b6040516101c69190610552565b60405180910390f35b600160009054906101000a900473ffffffffffffffffffffffffffffffffffffffff1681565b60025481565b600660019054906101000a900460ff1681565b6004805461021b90610678565b80601f016020809104026020016040519081016040528092919081815260200182805461024790610678565b80156102945780601f1061026957610100808354040283529160200191610294565b820191906000526020600020905b81548152906001019060200180831161027757829003601f168201915b505050505081565b60055481565b600380546102af90610678565b80601f01602080910402602001604051908101604052809291908181526020018280546102db90610678565b80156103285780601f106102fd57610100808354040283529160200191610328565b820191906000526020600020905b81548152906001019060200180831161030b57829003601f168201915b505050505081565b60008054906101000a900473ffffffffffffffffffffffffffffffffffffffff1681565b60606004805461036390610678565b80601f016020809104026020016040519081016040528092919081815260200182805461038f90610678565b80156103dc5780601f106103b1576101008083540402835291602001916103dc565b820191906000526020600020905b8154815290600101906020018083116103bf57829003601f168201915b5050505050905090565b600660009054906101000a900460ff1681565b600660029054906101000a900460ff1681565b6104a4828260405160240161042292919061058f565b6040516020818303038152906040527f4b5c4277000000000000000000000000000000000000000000000000000000007bffffffffffffffffffffffffffffffffffffffffffffffffffffffff19166020820180517bffffffffffffffffffffffffffffffffffffffffffffffffffffffff83818316178352505050506104a8565b5050565b60008151905060006a636f6e736f6c652e6c6f679050602083016000808483855afa5050505050565b6104da816105fd565b82525050565b6104e98161060f565b82525050565b60006104fa826105e1565b61050481856105ec565b9350610514818560208601610645565b61051d816106d9565b840191505092915050565b6105318161063b565b82525050565b600060208201905061054c60008301846104d1565b92915050565b600060208201905061056760008301846104e0565b92915050565b6000602082019050818103600083015261058781846104ef565b905092915050565b600060408201905081810360008301526105a981856104ef565b905081810360208301526105bd81846104ef565b90509392505050565b60006020820190506105db6000830184610528565b92915050565b600081519050919050565b600082825260208201905092915050565b60006106088261061b565b9050919050565b60008115159050919050565b600073ffffffffffffffffffffffffffffffffffffffff82169050919050565b6000819050919050565b60005b83811015610663578082015181840152602081019050610648565b83811115610672576000848401525b50505050565b6000600282049050600182168061069057607f821691505b602082108114156106a4576106a36106aa565b5b50919050565b7f4e487b7100000000000000000000000000000000000000000000000000000000600052602260045260246000fd5b6000601f19601f830116905091905056fea26469706673582212204f5a5f65affaffb928f94ce62de9c9f13c98a376cacfd7d4a6fa9c7e9c3015d064736f6c63430008070033a264697066735822122029759fc7ba5c5cd2d8eb0ca12397058e9d05b57962e40017722c1be0c1498e2f64736f6c63430008070033",
			"opcodes": "PUSH1 0x80 PUSH1 0x40 MSTORE PUSH1 0x0 PUSH1 0x3 SSTORE PUSH1 0x0 PUSH1 0x4 SSTORE CALLVALUE DUP1 ISZERO PUSH2 0x1A JUMPI PUSH1 0x0 DUP1 REVERT JUMPDEST POP CALLER PUSH1 0x0 DUP1 PUSH2 0x100 EXP DUP2 SLOAD DUP2 PUSH20 0xFFFFFFFFFFFFFFFFFFFFFFFFFFFFFFFFFFFFFFFF MUL NOT AND SWAP1 DUP4 PUSH20 0xFFFFFFFFFFFFFFFFFFFFFFFFFFFFFFFFFFFFFFFF AND MUL OR SWAP1 SSTORE POP PUSH2 0x3D11 DUP1 PUSH2 0x6A PUSH1 0x0 CODECOPY PUSH1 0x0 RETURN INVALID PUSH1 0x80 PUSH1 0x40 MSTORE CALLVALUE DUP1 ISZERO PUSH3 0x11 JUMPI PUSH1 0x0 DUP1 REVERT JUMPDEST POP PUSH1 0x4 CALLDATASIZE LT PUSH3 0x94 JUMPI PUSH1 0x0 CALLDATALOAD PUSH1 0xE0 SHR DUP1 PUSH4 0x8DA5CB5B GT PUSH3 0x63 JUMPI DUP1 PUSH4 0x8DA5CB5B EQ PUSH3 0x131 JUMPI DUP1 PUSH4 0x9B0A6C95 EQ PUSH3 0x153 JUMPI DUP1 PUSH4 0xCEB14098 EQ PUSH3 0x15F JUMPI DUP1 PUSH4 0xDD905282 EQ PUSH3 0x195 JUMPI PUSH3 0x94 JUMP JUMPDEST DUP1 PUSH4 0x49891979 EQ PUSH3 0x99 JUMPI DUP1 PUSH4 0x5F0DE09D EQ PUSH3 0xCF JUMPI DUP1 PUSH4 0x60EB9238 EQ PUSH3 0xEF JUMPI DUP1 PUSH4 0x82874A45 EQ PUSH3 0x125 JUMPI JUMPDEST PUSH1 0x0 DUP1 REVERT JUMPDEST PUSH3 0xB7 PUSH1 0x4 DUP1 CALLDATASIZE SUB DUP2 ADD SWAP1 PUSH3 0xB1 SWAP2 SWAP1 PUSH3 0x155F JUMP JUMPDEST PUSH3 0x1A1 JUMP JUMPDEST PUSH1 0x40 MLOAD PUSH3 0xC6 SWAP2 SWAP1 PUSH3 0x19DB JUMP JUMPDEST PUSH1 0x40 MLOAD DUP1 SWAP2 SUB SWAP1 RETURN JUMPDEST PUSH3 0xED PUSH1 0x4 DUP1 CALLDATASIZE SUB DUP2 ADD SWAP1 PUSH3 0xE7 SWAP2 SWAP1 PUSH3 0x15E4 JUMP JUMPDEST PUSH3 0x32B JUMP JUMPDEST STOP JUMPDEST PUSH3 0x10D PUSH1 0x4 DUP1 CALLDATASIZE SUB DUP2 ADD SWAP1 PUSH3 0x107 SWAP2 SWAP1 PUSH3 0x15E4 JUMP JUMPDEST PUSH3 0x40A JUMP JUMPDEST PUSH1 0x40 MLOAD PUSH3 0x11C SWAP2 SWAP1 PUSH3 0x18B3 JUMP JUMPDEST PUSH1 0x40 MLOAD DUP1 SWAP2 SUB SWAP1 RETURN JUMPDEST PUSH3 0x12F PUSH3 0x560 JUMP JUMPDEST STOP JUMPDEST PUSH3 0x13B PUSH3 0x9AA JUMP JUMPDEST PUSH1 0x40 MLOAD PUSH3 0x14A SWAP2 SWAP1 PUSH3 0x1852 JUMP JUMPDEST PUSH1 0x40 MLOAD DUP1 SWAP2 SUB SWAP1 RETURN JUMPDEST PUSH3 0x15D PUSH3 0x9CE JUMP JUMPDEST STOP JUMPDEST PUSH3 0x17D PUSH1 0x4 DUP1 CALLDATASIZE SUB DUP2 ADD SWAP1 PUSH3 0x177 SWAP2 SWAP1 PUSH3 0x148B JUMP JUMPDEST PUSH3 0xC75 JUMP JUMPDEST PUSH1 0x40 MLOAD PUSH3 0x18C SWAP2 SWAP1 PUSH3 0x19DB JUMP JUMPDEST PUSH1 0x40 MLOAD DUP1 SWAP2 SUB SWAP1 RETURN JUMPDEST PUSH3 0x19F PUSH3 0x1036 JUMP JUMPDEST STOP JUMPDEST PUSH1 0x0 DUP1 PUSH1 0x0 SWAP1 SLOAD SWAP1 PUSH2 0x100 EXP SWAP1 DIV PUSH20 0xFFFFFFFFFFFFFFFFFFFFFFFFFFFFFFFFFFFFFFFF AND PUSH20 0xFFFFFFFFFFFFFFFFFFFFFFFFFFFFFFFFFFFFFFFF AND CALLER PUSH20 0xFFFFFFFFFFFFFFFFFFFFFFFFFFFFFFFFFFFFFFFF AND EQ PUSH3 0x235 JUMPI PUSH1 0x40 MLOAD PUSH32 0x8C379A000000000000000000000000000000000000000000000000000000000 DUP2 MSTORE PUSH1 0x4 ADD PUSH3 0x22C SWAP1 PUSH3 0x1997 JUMP JUMPDEST PUSH1 0x40 MLOAD DUP1 SWAP2 SUB SWAP1 REVERT JUMPDEST PUSH1 0x0 DUP4 DUP4 PUSH1 0x40 MLOAD PUSH3 0x247 SWAP1 PUSH3 0x1280 JUMP JUMPDEST PUSH3 0x254 SWAP3 SWAP2 SWAP1 PUSH3 0x18D7 JUMP JUMPDEST PUSH1 0x40 MLOAD DUP1 SWAP2 SUB SWAP1 PUSH1 0x0 CREATE DUP1 ISZERO DUP1 ISZERO PUSH3 0x271 JUMPI RETURNDATASIZE PUSH1 0x0 DUP1 RETURNDATACOPY RETURNDATASIZE PUSH1 0x0 REVERT JUMPDEST POP SWAP1 POP PUSH32 0x5FF53BD33BF36207D7ACDA03C1A1A4CFCF933C64C16B5DFAB56948DBD6A6F1D8 ADDRESS DUP3 DUP6 PUSH1 0x40 MLOAD PUSH3 0x2A9 SWAP4 SWAP3 SWAP2 SWAP1 PUSH3 0x186F JUMP JUMPDEST PUSH1 0x40 MLOAD DUP1 SWAP2 SUB SWAP1 LOG1 PUSH1 0x3 PUSH1 0x0 DUP2 SLOAD DUP1 SWAP3 SWAP2 SWAP1 PUSH3 0x2C6 SWAP1 PUSH3 0x1D6F JUMP JUMPDEST SWAP2 SWAP1 POP SSTORE POP DUP1 PUSH1 0x1 PUSH1 0x0 PUSH1 0x3 SLOAD DUP2 MSTORE PUSH1 0x20 ADD SWAP1 DUP2 MSTORE PUSH1 0x20 ADD PUSH1 0x0 KECCAK256 PUSH1 0x0 PUSH2 0x100 EXP DUP2 SLOAD DUP2 PUSH20 0xFFFFFFFFFFFFFFFFFFFFFFFFFFFFFFFFFFFFFFFF MUL NOT AND SWAP1 DUP4 PUSH20 0xFFFFFFFFFFFFFFFFFFFFFFFFFFFFFFFFFFFFFFFF AND MUL OR SWAP1 SSTORE POP PUSH1 0x3 SLOAD SWAP2 POP POP SWAP3 SWAP2 POP POP JUMP JUMPDEST PUSH1 0x3 SLOAD DUP2 LT PUSH3 0x372 JUMPI PUSH1 0x40 MLOAD PUSH32 0x8C379A000000000000000000000000000000000000000000000000000000000 DUP2 MSTORE PUSH1 0x4 ADD PUSH3 0x369 SWAP1 PUSH3 0x19B9 JUMP JUMPDEST PUSH1 0x40 MLOAD DUP1 SWAP2 SUB SWAP1 REVERT JUMPDEST PUSH1 0x1 PUSH1 0x0 DUP3 DUP2 MSTORE PUSH1 0x20 ADD SWAP1 DUP2 MSTORE PUSH1 0x20 ADD PUSH1 0x0 KECCAK256 PUSH1 0x0 SWAP1 SLOAD SWAP1 PUSH2 0x100 EXP SWAP1 DIV PUSH20 0xFFFFFFFFFFFFFFFFFFFFFFFFFFFFFFFFFFFFFFFF AND PUSH20 0xFFFFFFFFFFFFFFFFFFFFFFFFFFFFFFFFFFFFFFFF AND PUSH4 0x5FC8EA9A PUSH1 0x40 MLOAD DUP2 PUSH4 0xFFFFFFFF AND PUSH1 0xE0 SHL DUP2 MSTORE PUSH1 0x4 ADD PUSH1 0x0 PUSH1 0x40 MLOAD DUP1 DUP4 SUB DUP2 PUSH1 0x0 DUP8 DUP1 EXTCODESIZE ISZERO DUP1 ISZERO PUSH3 0x3EE JUMPI PUSH1 0x0 DUP1 REVERT JUMPDEST POP GAS CALL ISZERO DUP1 ISZERO PUSH3 0x403 JUMPI RETURNDATASIZE PUSH1 0x0 DUP1 RETURNDATACOPY RETURNDATASIZE PUSH1 0x0 REVERT JUMPDEST POP POP POP POP POP JUMP JUMPDEST PUSH1 0x60 PUSH1 0x0 DUP1 SLOAD SWAP1 PUSH2 0x100 EXP SWAP1 DIV PUSH20 0xFFFFFFFFFFFFFFFFFFFFFFFFFFFFFFFFFFFFFFFF AND PUSH20 0xFFFFFFFFFFFFFFFFFFFFFFFFFFFFFFFFFFFFFFFF AND CALLER PUSH20 0xFFFFFFFFFFFFFFFFFFFFFFFFFFFFFFFFFFFFFFFF AND EQ PUSH3 0x49D JUMPI PUSH1 0x40 MLOAD PUSH32 0x8C379A000000000000000000000000000000000000000000000000000000000 DUP2 MSTORE PUSH1 0x4 ADD PUSH3 0x494 SWAP1 PUSH3 0x1997 JUMP JUMPDEST PUSH1 0x40 MLOAD DUP1 SWAP2 SUB SWAP1 REVERT JUMPDEST PUSH1 0x1 PUSH1 0x0 DUP4 DUP2 MSTORE PUSH1 0x20 ADD SWAP1 DUP2 MSTORE PUSH1 0x20 ADD PUSH1 0x0 KECCAK256 PUSH1 0x0 SWAP1 SLOAD SWAP1 PUSH2 0x100 EXP SWAP1 DIV PUSH20 0xFFFFFFFFFFFFFFFFFFFFFFFFFFFFFFFFFFFFFFFF AND PUSH20 0xFFFFFFFFFFFFFFFFFFFFFFFFFFFFFFFFFFFFFFFF AND PUSH4 0xB294EF38 PUSH1 0x40 MLOAD DUP2 PUSH4 0xFFFFFFFF AND PUSH1 0xE0 SHL DUP2 MSTORE PUSH1 0x4 ADD PUSH1 0x0 PUSH1 0x40 MLOAD DUP1 DUP4 SUB DUP2 PUSH1 0x0 DUP8 DUP1 EXTCODESIZE ISZERO DUP1 ISZERO PUSH3 0x519 JUMPI PUSH1 0x0 DUP1 REVERT JUMPDEST POP GAS CALL ISZERO DUP1 ISZERO PUSH3 0x52E JUMPI RETURNDATASIZE PUSH1 0x0 DUP1 RETURNDATACOPY RETURNDATASIZE PUSH1 0x0 REVERT JUMPDEST POP POP POP POP PUSH1 0x40 MLOAD RETURNDATASIZE PUSH1 0x0 DUP3 RETURNDATACOPY RETURNDATASIZE PUSH1 0x1F NOT PUSH1 0x1F DUP3 ADD AND DUP3 ADD DUP1 PUSH1 0x40 MSTORE POP DUP2 ADD SWAP1 PUSH3 0x559 SWAP2 SWAP1 PUSH3 0x150E JUMP JUMPDEST SWAP1 POP SWAP2 SWAP1 POP JUMP JUMPDEST PUSH20 0x0 PUSH4 0xABCD7960 PUSH3 0x5F0 PUSH1 0x40 MLOAD DUP1 PUSH1 0x40 ADD PUSH1 0x40 MSTORE DUP1 PUSH1 0x4 DUP2 MSTORE PUSH1 0x20 ADD PUSH32 0x7472656500000000000000000000000000000000000000000000000000000000 DUP2 MSTORE POP PUSH1 0x40 MLOAD DUP1 PUSH1 0x40 ADD PUSH1 0x40 MSTORE DUP1 PUSH1 0x4 DUP2 MSTORE PUSH1 0x20 ADD PUSH32 0x7061726B00000000000000000000000000000000000000000000000000000000 DUP2 MSTORE POP PUSH3 0x1A1 JUMP JUMPDEST PUSH1 0x1 PUSH1 0x40 MLOAD DUP4 PUSH4 0xFFFFFFFF AND PUSH1 0xE0 SHL DUP2 MSTORE PUSH1 0x4 ADD PUSH3 0x611 SWAP3 SWAP2 SWAP1 PUSH3 0x19F8 JUMP JUMPDEST PUSH1 0x20 PUSH1 0x40 MLOAD DUP1 DUP4 SUB DUP2 DUP7 DUP1 EXTCODESIZE ISZERO DUP1 ISZERO PUSH3 0x62A JUMPI PUSH1 0x0 DUP1 REVERT JUMPDEST POP GAS DELEGATECALL ISZERO DUP1 ISZERO PUSH3 0x63F JUMPI RETURNDATASIZE PUSH1 0x0 DUP1 RETURNDATACOPY RETURNDATASIZE PUSH1 0x0 REVERT JUMPDEST POP POP POP POP PUSH1 0x40 MLOAD RETURNDATASIZE PUSH1 0x1F NOT PUSH1 0x1F DUP3 ADD AND DUP3 ADD DUP1 PUSH1 0x40 MSTORE POP DUP2 ADD SWAP1 PUSH3 0x665 SWAP2 SWAP1 PUSH3 0x14DC JUMP JUMPDEST POP PUSH20 0x0 PUSH4 0xABCD7960 PUSH3 0x6F6 PUSH1 0x40 MLOAD DUP1 PUSH1 0x40 ADD PUSH1 0x40 MSTORE DUP1 PUSH1 0x4 DUP2 MSTORE PUSH1 0x20 ADD PUSH32 0x7472656500000000000000000000000000000000000000000000000000000000 DUP2 MSTORE POP PUSH1 0x40 MLOAD DUP1 PUSH1 0x40 ADD PUSH1 0x40 MSTORE DUP1 PUSH1 0x4 DUP2 MSTORE PUSH1 0x20 ADD PUSH32 0x7061726B00000000000000000000000000000000000000000000000000000000 DUP2 MSTORE POP PUSH3 0x1A1 JUMP JUMPDEST PUSH1 0x2 PUSH1 0x40 MLOAD DUP4 PUSH4 0xFFFFFFFF AND PUSH1 0xE0 SHL DUP2 MSTORE PUSH1 0x4 ADD PUSH3 0x717 SWAP3 SWAP2 SWAP1 PUSH3 0x1A7C JUMP JUMPDEST PUSH1 0x20 PUSH1 0x40 MLOAD DUP1 DUP4 SUB DUP2 DUP7 DUP1 EXTCODESIZE ISZERO DUP1 ISZERO PUSH3 0x730 JUMPI PUSH1 0x0 DUP1 REVERT JUMPDEST POP GAS DELEGATECALL ISZERO DUP1 ISZERO PUSH3 0x745 JUMPI RETURNDATASIZE PUSH1 0x0 DUP1 RETURNDATACOPY RETURNDATASIZE PUSH1 0x0 REVERT JUMPDEST POP POP POP POP PUSH1 0x40 MLOAD RETURNDATASIZE PUSH1 0x1F NOT PUSH1 0x1F DUP3 ADD AND DUP3 ADD DUP1 PUSH1 0x40 MSTORE POP DUP2 ADD SWAP1 PUSH3 0x76B SWAP2 SWAP1 PUSH3 0x14DC JUMP JUMPDEST POP PUSH20 0x0 PUSH4 0xABCD7960 PUSH3 0x7FC PUSH1 0x40 MLOAD DUP1 PUSH1 0x40 ADD PUSH1 0x40 MSTORE DUP1 PUSH1 0x4 DUP2 MSTORE PUSH1 0x20 ADD PUSH32 0x7472656500000000000000000000000000000000000000000000000000000000 DUP2 MSTORE POP PUSH1 0x40 MLOAD DUP1 PUSH1 0x40 ADD PUSH1 0x40 MSTORE DUP1 PUSH1 0x4 DUP2 MSTORE PUSH1 0x20 ADD PUSH32 0x7061726B00000000000000000000000000000000000000000000000000000000 DUP2 MSTORE POP PUSH3 0x1A1 JUMP JUMPDEST PUSH1 0x3 PUSH1 0x40 MLOAD DUP4 PUSH4 0xFFFFFFFF AND PUSH1 0xE0 SHL DUP2 MSTORE PUSH1 0x4 ADD PUSH3 0x81D SWAP3 SWAP2 SWAP1 PUSH3 0x1ABE JUMP JUMPDEST PUSH1 0x20 PUSH1 0x40 MLOAD DUP1 DUP4 SUB DUP2 DUP7 DUP1 EXTCODESIZE ISZERO DUP1 ISZERO PUSH3 0x836 JUMPI PUSH1 0x0 DUP1 REVERT JUMPDEST POP GAS DELEGATECALL ISZERO DUP1 ISZERO PUSH3 0x84B JUMPI RETURNDATASIZE PUSH1 0x0 DUP1 RETURNDATACOPY RETURNDATASIZE PUSH1 0x0 REVERT JUMPDEST POP POP POP POP PUSH1 0x40 MLOAD RETURNDATASIZE PUSH1 0x1F NOT PUSH1 0x1F DUP3 ADD AND DUP3 ADD DUP1 PUSH1 0x40 MSTORE POP DUP2 ADD SWAP1 PUSH3 0x871 SWAP2 SWAP1 PUSH3 0x14DC JUMP JUMPDEST POP PUSH20 0x0 PUSH4 0xABCD7960 PUSH3 0x902 PUSH1 0x40 MLOAD DUP1 PUSH1 0x40 ADD PUSH1 0x40 MSTORE DUP1 PUSH1 0x4 DUP2 MSTORE PUSH1 0x20 ADD PUSH32 0x7472656500000000000000000000000000000000000000000000000000000000 DUP2 MSTORE POP PUSH1 0x40 MLOAD DUP1 PUSH1 0x40 ADD PUSH1 0x40 MSTORE DUP1 PUSH1 0x4 DUP2 MSTORE PUSH1 0x20 ADD PUSH32 0x7061726B00000000000000000000000000000000000000000000000000000000 DUP2 MSTORE POP PUSH3 0x1A1 JUMP JUMPDEST PUSH1 0x4 PUSH1 0x40 MLOAD DUP4 PUSH4 0xFFFFFFFF AND PUSH1 0xE0 SHL DUP2 MSTORE PUSH1 0x4 ADD PUSH3 0x923 SWAP3 SWAP2 SWAP1 PUSH3 0x1B00 JUMP JUMPDEST PUSH1 0x20 PUSH1 0x40 MLOAD DUP1 DUP4 SUB DUP2 DUP7 DUP1 EXTCODESIZE ISZERO DUP1 ISZERO PUSH3 0x93C JUMPI PUSH1 0x0 DUP1 REVERT JUMPDEST POP GAS DELEGATECALL ISZERO DUP1 ISZERO PUSH3 0x951 JUMPI RETURNDATASIZE PUSH1 0x0 DUP1 RETURNDATACOPY RETURNDATASIZE PUSH1 0x0 REVERT JUMPDEST POP POP POP POP PUSH1 0x40 MLOAD RETURNDATASIZE PUSH1 0x1F NOT PUSH1 0x1F DUP3 ADD AND DUP3 ADD DUP1 PUSH1 0x40 MSTORE POP DUP2 ADD SWAP1 PUSH3 0x977 SWAP2 SWAP1 PUSH3 0x14DC JUMP JUMPDEST POP PUSH3 0x984 PUSH1 0x0 PUSH3 0x32B JUMP JUMPDEST PUSH3 0x990 PUSH1 0x1 PUSH3 0x32B JUMP JUMPDEST PUSH3 0x99C PUSH1 0x2 PUSH3 0x32B JUMP JUMPDEST PUSH3 0x9A8 PUSH1 0x3 PUSH3 0x32B JUMP JUMPDEST JUMP JUMPDEST PUSH1 0x0 DUP1 SLOAD SWAP1 PUSH2 0x100 EXP SWAP1 DIV PUSH20 0xFFFFFFFFFFFFFFFFFFFFFFFFFFFFFFFFFFFFFFFF AND DUP2 JUMP JUMPDEST PUSH20 0x0 PUSH4 0xABCD7960 PUSH3 0xA5E PUSH1 0x40 MLOAD DUP1 PUSH1 0x40 ADD PUSH1 0x40 MSTORE DUP1 PUSH1 0x4 DUP2 MSTORE PUSH1 0x20 ADD PUSH32 0x7472656500000000000000000000000000000000000000000000000000000000 DUP2 MSTORE POP PUSH1 0x40 MLOAD DUP1 PUSH1 0x40 ADD PUSH1 0x40 MSTORE DUP1 PUSH1 0x4 DUP2 MSTORE PUSH1 0x20 ADD PUSH32 0x7061726B00000000000000000000000000000000000000000000000000000000 DUP2 MSTORE POP PUSH3 0x1A1 JUMP JUMPDEST PUSH1 0x1 PUSH1 0x40 MLOAD DUP4 PUSH4 0xFFFFFFFF AND PUSH1 0xE0 SHL DUP2 MSTORE PUSH1 0x4 ADD PUSH3 0xA7F SWAP3 SWAP2 SWAP1 PUSH3 0x19F8 JUMP JUMPDEST PUSH1 0x20 PUSH1 0x40 MLOAD DUP1 DUP4 SUB DUP2 DUP7 DUP1 EXTCODESIZE ISZERO DUP1 ISZERO PUSH3 0xA98 JUMPI PUSH1 0x0 DUP1 REVERT JUMPDEST POP GAS DELEGATECALL ISZERO DUP1 ISZERO PUSH3 0xAAD JUMPI RETURNDATASIZE PUSH1 0x0 DUP1 RETURNDATACOPY RETURNDATASIZE PUSH1 0x0 REVERT JUMPDEST POP POP POP POP PUSH1 0x40 MLOAD RETURNDATASIZE PUSH1 0x1F NOT PUSH1 0x1F DUP3 ADD AND DUP3 ADD DUP1 PUSH1 0x40 MSTORE POP DUP2 ADD SWAP1 PUSH3 0xAD3 SWAP2 SWAP1 PUSH3 0x14DC JUMP JUMPDEST POP PUSH20 0x0 PUSH4 0xABCD7960 PUSH3 0xB64 PUSH1 0x40 MLOAD DUP1 PUSH1 0x40 ADD PUSH1 0x40 MSTORE DUP1 PUSH1 0x5 DUP2 MSTORE PUSH1 0x20 ADD PUSH32 0x7472656532000000000000000000000000000000000000000000000000000000 DUP2 MSTORE POP PUSH1 0x40 MLOAD DUP1 PUSH1 0x40 ADD PUSH1 0x40 MSTORE DUP1 PUSH1 0x5 DUP2 MSTORE PUSH1 0x20 ADD PUSH32 0x7061726B32000000000000000000000000000000000000000000000000000000 DUP2 MSTORE POP PUSH3 0x1A1 JUMP JUMPDEST PUSH1 0x2 PUSH1 0x40 MLOAD DUP4 PUSH4 0xFFFFFFFF AND PUSH1 0xE0 SHL DUP2 MSTORE PUSH1 0x4 ADD PUSH3 0xB85 SWAP3 SWAP2 SWAP1 PUSH3 0x1A7C JUMP JUMPDEST PUSH1 0x20 PUSH1 0x40 MLOAD DUP1 DUP4 SUB DUP2 DUP7 DUP1 EXTCODESIZE ISZERO DUP1 ISZERO PUSH3 0xB9E JUMPI PUSH1 0x0 DUP1 REVERT JUMPDEST POP GAS DELEGATECALL ISZERO DUP1 ISZERO PUSH3 0xBB3 JUMPI RETURNDATASIZE PUSH1 0x0 DUP1 RETURNDATACOPY RETURNDATASIZE PUSH1 0x0 REVERT JUMPDEST POP POP POP POP PUSH1 0x40 MLOAD RETURNDATASIZE PUSH1 0x1F NOT PUSH1 0x1F DUP3 ADD AND DUP3 ADD DUP1 PUSH1 0x40 MSTORE POP DUP2 ADD SWAP1 PUSH3 0xBD9 SWAP2 SWAP1 PUSH3 0x14DC JUMP JUMPDEST POP PUSH20 0x0 PUSH4 0xE8C2CB16 PUSH3 0xC00 PUSH1 0x2 PUSH3 0x40A JUMP JUMPDEST PUSH1 0x40 MLOAD DUP3 PUSH4 0xFFFFFFFF AND PUSH1 0xE0 SHL DUP2 MSTORE PUSH1 0x4 ADD PUSH3 0xC1E SWAP2 SWAP1 PUSH3 0x1912 JUMP JUMPDEST PUSH1 0x20 PUSH1 0x40 MLOAD DUP1 DUP4 SUB DUP2 DUP7 DUP1 EXTCODESIZE ISZERO DUP1 ISZERO PUSH3 0xC37 JUMPI PUSH1 0x0 DUP1 REVERT JUMPDEST POP GAS DELEGATECALL ISZERO DUP1 ISZERO PUSH3 0xC4C JUMPI RETURNDATASIZE PUSH1 0x0 DUP1 RETURNDATACOPY RETURNDATASIZE PUSH1 0x0 REVERT JUMPDEST POP POP POP POP PUSH1 0x40 MLOAD RETURNDATASIZE PUSH1 0x1F NOT PUSH1 0x1F DUP3 ADD AND DUP3 ADD DUP1 PUSH1 0x40 MSTORE POP DUP2 ADD SWAP1 PUSH3 0xC72 SWAP2 SWAP1 PUSH3 0x14DC JUMP JUMPDEST POP JUMP JUMPDEST PUSH1 0x0 DUP1 PUSH1 0x0 SWAP1 SLOAD SWAP1 PUSH2 0x100 EXP SWAP1 DIV PUSH20 0xFFFFFFFFFFFFFFFFFFFFFFFFFFFFFFFFFFFFFFFF AND PUSH20 0xFFFFFFFFFFFFFFFFFFFFFFFFFFFFFFFFFFFFFFFF AND CALLER PUSH20 0xFFFFFFFFFFFFFFFFFFFFFFFFFFFFFFFFFFFFFFFF AND EQ PUSH3 0xD09 JUMPI PUSH1 0x40 MLOAD PUSH32 0x8C379A000000000000000000000000000000000000000000000000000000000 DUP2 MSTORE PUSH1 0x4 ADD PUSH3 0xD00 SWAP1 PUSH3 0x1997 JUMP JUMPDEST PUSH1 0x40 MLOAD DUP1 SWAP2 SUB SWAP1 REVERT JUMPDEST PUSH1 0x0 DUP1 PUSH1 0x0 PUSH3 0xD4E PUSH1 0x40 MLOAD DUP1 PUSH1 0x40 ADD PUSH1 0x40 MSTORE DUP1 PUSH1 0x19 DUP2 MSTORE PUSH1 0x20 ADD PUSH32 0x4D61646520697420696E746F207468652066756E6374696F6E00000000000000 DUP2 MSTORE POP PUSH3 0x11BA JUMP JUMPDEST PUSH1 0x0 JUMPDEST DUP6 MLOAD DUP2 LT ISZERO PUSH3 0x1017 JUMPI PUSH3 0xD9B PUSH1 0x40 MLOAD DUP1 PUSH1 0x40 ADD PUSH1 0x40 MSTORE DUP1 PUSH1 0xC DUP2 MSTORE PUSH1 0x20 ADD PUSH32 0x54657374696E6720547265650000000000000000000000000000000000000000 DUP2 MSTORE POP PUSH3 0x11BA JUMP JUMPDEST DUP6 DUP2 DUP2 MLOAD DUP2 LT PUSH3 0xDB1 JUMPI PUSH3 0xDB0 PUSH3 0x1E1B JUMP JUMPDEST JUMPDEST PUSH1 0x20 MUL PUSH1 0x20 ADD ADD MLOAD SWAP3 POP PUSH1 0x1 PUSH1 0x0 DUP5 DUP2 MSTORE PUSH1 0x20 ADD SWAP1 DUP2 MSTORE PUSH1 0x20 ADD PUSH1 0x0 KECCAK256 PUSH1 0x0 SWAP1 SLOAD SWAP1 PUSH2 0x100 EXP SWAP1 DIV PUSH20 0xFFFFFFFFFFFFFFFFFFFFFFFFFFFFFFFFFFFFFFFF AND PUSH20 0xFFFFFFFFFFFFFFFFFFFFFFFFFFFFFFFFFFFFFFFF AND PUSH4 0x80007E83 PUSH1 0x40 MLOAD DUP2 PUSH4 0xFFFFFFFF AND PUSH1 0xE0 SHL DUP2 MSTORE PUSH1 0x4 ADD PUSH1 0x20 PUSH1 0x40 MLOAD DUP1 DUP4 SUB DUP2 PUSH1 0x0 DUP8 DUP1 EXTCODESIZE ISZERO DUP1 ISZERO PUSH3 0xE37 JUMPI PUSH1 0x0 DUP1 REVERT JUMPDEST POP GAS CALL ISZERO DUP1 ISZERO PUSH3 0xE4C JUMPI RETURNDATASIZE PUSH1 0x0 DUP1 RETURNDATACOPY RETURNDATASIZE PUSH1 0x0 REVERT JUMPDEST POP POP POP POP PUSH1 0x40 MLOAD RETURNDATASIZE PUSH1 0x1F NOT PUSH1 0x1F DUP3 ADD AND DUP3 ADD DUP1 PUSH1 0x40 MSTORE POP DUP2 ADD SWAP1 PUSH3 0xE72 SWAP2 SWAP1 PUSH3 0x14DC JUMP JUMPDEST PUSH3 0xE82 JUMPI PUSH3 0xE81 PUSH3 0x1DBD JUMP JUMPDEST JUMPDEST PUSH1 0x1 PUSH1 0x0 DUP5 DUP2 MSTORE PUSH1 0x20 ADD SWAP1 DUP2 MSTORE PUSH1 0x20 ADD PUSH1 0x0 KECCAK256 PUSH1 0x0 SWAP1 SLOAD SWAP1 PUSH2 0x100 EXP SWAP1 DIV PUSH20 0xFFFFFFFFFFFFFFFFFFFFFFFFFFFFFFFFFFFFFFFF AND PUSH20 0xFFFFFFFFFFFFFFFFFFFFFFFFFFFFFFFFFFFFFFFF AND PUSH4 0xA767BF6D PUSH1 0x40 MLOAD DUP2 PUSH4 0xFFFFFFFF AND PUSH1 0xE0 SHL DUP2 MSTORE PUSH1 0x4 ADD PUSH1 0x20 PUSH1 0x40 MLOAD DUP1 DUP4 SUB DUP2 PUSH1 0x0 DUP8 DUP1 EXTCODESIZE ISZERO DUP1 ISZERO PUSH3 0xEFE JUMPI PUSH1 0x0 DUP1 REVERT JUMPDEST POP GAS CALL ISZERO DUP1 ISZERO PUSH3 0xF13 JUMPI RETURNDATASIZE PUSH1 0x0 DUP1 RETURNDATACOPY RETURNDATASIZE PUSH1 0x0 REVERT JUMPDEST POP POP POP POP PUSH1 0x40 MLOAD RETURNDATASIZE PUSH1 0x1F NOT PUSH1 0x1F DUP3 ADD AND DUP3 ADD DUP1 PUSH1 0x40 MSTORE POP DUP2 ADD SWAP1 PUSH3 0xF39 SWAP2 SWAP1 PUSH3 0x1616 JUMP JUMPDEST DUP5 PUSH3 0xF46 SWAP2 SWAP1 PUSH3 0x1BFD JUMP JUMPDEST SWAP4 POP PUSH2 0x3E8 DUP5 LT PUSH3 0x1001 JUMPI PUSH1 0x1 SWAP2 POP PUSH1 0x0 PUSH1 0x40 MLOAD PUSH3 0xF66 SWAP1 PUSH3 0x128E JUMP JUMPDEST PUSH3 0xF71 SWAP1 PUSH3 0x1960 JUMP JUMPDEST PUSH1 0x40 MLOAD DUP1 SWAP2 SUB SWAP1 PUSH1 0x0 CREATE DUP1 ISZERO DUP1 ISZERO PUSH3 0xF8E JUMPI RETURNDATASIZE PUSH1 0x0 DUP1 RETURNDATACOPY RETURNDATASIZE PUSH1 0x0 REVERT JUMPDEST POP SWAP1 POP DUP1 PUSH1 0x2 PUSH1 0x0 PUSH1 0x4 SLOAD DUP2 MSTORE PUSH1 0x20 ADD SWAP1 DUP2 MSTORE PUSH1 0x20 ADD PUSH1 0x0 KECCAK256 PUSH1 0x0 PUSH2 0x100 EXP DUP2 SLOAD DUP2 PUSH20 0xFFFFFFFFFFFFFFFFFFFFFFFFFFFFFFFFFFFFFFFF MUL NOT AND SWAP1 DUP4 PUSH20 0xFFFFFFFFFFFFFFFFFFFFFFFFFFFFFFFFFFFFFFFF AND MUL OR SWAP1 SSTORE POP PUSH1 0x4 PUSH1 0x0 DUP2 SLOAD DUP1 SWAP3 SWAP2 SWAP1 PUSH3 0xFFA SWAP1 PUSH3 0x1D6F JUMP JUMPDEST SWAP2 SWAP1 POP SSTORE POP POP JUMPDEST DUP1 DUP1 PUSH3 0x100E SWAP1 PUSH3 0x1D6F JUMP JUMPDEST SWAP2 POP POP PUSH3 0xD51 JUMP JUMPDEST POP DUP1 PUSH3 0x1029 JUMPI PUSH3 0x1028 PUSH3 0x1DBD JUMP JUMPDEST JUMPDEST PUSH1 0x4 SLOAD SWAP4 POP POP POP POP SWAP2 SWAP1 POP JUMP JUMPDEST PUSH1 0x0 PUSH1 0x4 PUSH8 0xFFFFFFFFFFFFFFFF DUP2 GT ISZERO PUSH3 0x1056 JUMPI PUSH3 0x1055 PUSH3 0x1E4A JUMP JUMPDEST JUMPDEST PUSH1 0x40 MLOAD SWAP1 DUP1 DUP3 MSTORE DUP1 PUSH1 0x20 MUL PUSH1 0x20 ADD DUP3 ADD PUSH1 0x40 MSTORE DUP1 ISZERO PUSH3 0x1085 JUMPI DUP2 PUSH1 0x20 ADD PUSH1 0x20 DUP3 MUL DUP1 CALLDATASIZE DUP4 CALLDATACOPY DUP1 DUP3 ADD SWAP2 POP POP SWAP1 POP JUMPDEST POP SWAP1 POP PUSH1 0x0 DUP2 PUSH1 0x0 DUP2 MLOAD DUP2 LT PUSH3 0x10A1 JUMPI PUSH3 0x10A0 PUSH3 0x1E1B JUMP JUMPDEST JUMPDEST PUSH1 0x20 MUL PUSH1 0x20 ADD ADD DUP2 DUP2 MSTORE POP POP PUSH1 0x1 DUP2 PUSH1 0x1 DUP2 MLOAD DUP2 LT PUSH3 0x10C6 JUMPI PUSH3 0x10C5 PUSH3 0x1E1B JUMP JUMPDEST JUMPDEST PUSH1 0x20 MUL PUSH1 0x20 ADD ADD DUP2 DUP2 MSTORE POP POP PUSH1 0x2 DUP2 PUSH1 0x2 DUP2 MLOAD DUP2 LT PUSH3 0x10EB JUMPI PUSH3 0x10EA PUSH3 0x1E1B JUMP JUMPDEST JUMPDEST PUSH1 0x20 MUL PUSH1 0x20 ADD ADD DUP2 DUP2 MSTORE POP POP PUSH1 0x3 DUP2 PUSH1 0x3 DUP2 MLOAD DUP2 LT PUSH3 0x1110 JUMPI PUSH3 0x110F PUSH3 0x1E1B JUMP JUMPDEST JUMPDEST PUSH1 0x20 MUL PUSH1 0x20 ADD ADD DUP2 DUP2 MSTORE POP POP PUSH20 0x0 PUSH4 0xABCD7960 PUSH3 0x1141 DUP4 PUSH3 0xC75 JUMP JUMPDEST PUSH1 0x1 PUSH1 0x40 MLOAD DUP4 PUSH4 0xFFFFFFFF AND PUSH1 0xE0 SHL DUP2 MSTORE PUSH1 0x4 ADD PUSH3 0x1162 SWAP3 SWAP2 SWAP1 PUSH3 0x1A3A JUMP JUMPDEST PUSH1 0x20 PUSH1 0x40 MLOAD DUP1 DUP4 SUB DUP2 DUP7 DUP1 EXTCODESIZE ISZERO DUP1 ISZERO PUSH3 0x117B JUMPI PUSH1 0x0 DUP1 REVERT JUMPDEST POP GAS DELEGATECALL ISZERO DUP1 ISZERO PUSH3 0x1190 JUMPI RETURNDATASIZE PUSH1 0x0 DUP1 RETURNDATACOPY RETURNDATASIZE PUSH1 0x0 REVERT JUMPDEST POP POP POP POP PUSH1 0x40 MLOAD RETURNDATASIZE PUSH1 0x1F NOT PUSH1 0x1F DUP3 ADD AND DUP3 ADD DUP1 PUSH1 0x40 MSTORE POP DUP2 ADD SWAP1 PUSH3 0x11B6 SWAP2 SWAP1 PUSH3 0x14DC JUMP JUMPDEST POP POP JUMP JUMPDEST PUSH3 0x1254 DUP2 PUSH1 0x40 MLOAD PUSH1 0x24 ADD PUSH3 0x11D1 SWAP2 SWAP1 PUSH3 0x18B3 JUMP JUMPDEST PUSH1 0x40 MLOAD PUSH1 0x20 DUP2 DUP4 SUB SUB DUP2 MSTORE SWAP1 PUSH1 0x40 MSTORE PUSH32 0x41304FAC00000000000000000000000000000000000000000000000000000000 PUSH28 0xFFFFFFFFFFFFFFFFFFFFFFFFFFFFFFFFFFFFFFFFFFFFFFFFFFFFFFFF NOT AND PUSH1 0x20 DUP3 ADD DUP1 MLOAD PUSH28 0xFFFFFFFFFFFFFFFFFFFFFFFFFFFFFFFFFFFFFFFFFFFFFFFFFFFFFFFF DUP4 DUP2 DUP4 AND OR DUP4 MSTORE POP POP POP POP PUSH3 0x1257 JUMP JUMPDEST POP JUMP JUMPDEST PUSH1 0x0 DUP2 MLOAD SWAP1 POP PUSH1 0x0 PUSH11 0x636F6E736F6C652E6C6F67 SWAP1 POP PUSH1 0x20 DUP4 ADD PUSH1 0x0 DUP1 DUP5 DUP4 DUP6 GAS STATICCALL POP POP POP POP POP JUMP JUMPDEST PUSH2 0xF3C DUP1 PUSH3 0x2043 DUP4 CODECOPY ADD SWAP1 JUMP JUMPDEST PUSH2 0xD5D DUP1 PUSH3 0x2F7F DUP4 CODECOPY ADD SWAP1 JUMP JUMPDEST PUSH1 0x0 PUSH3 0x12B3 PUSH3 0x12AD DUP5 PUSH3 0x1B6B JUMP JUMPDEST PUSH3 0x1B42 JUMP JUMPDEST SWAP1 POP DUP1 DUP4 DUP3 MSTORE PUSH1 0x20 DUP3 ADD SWAP1 POP DUP3 DUP6 PUSH1 0x20 DUP7 MUL DUP3 ADD GT ISZERO PUSH3 0x12D9 JUMPI PUSH3 0x12D8 PUSH3 0x1E7E JUMP JUMPDEST JUMPDEST PUSH1 0x0 JUMPDEST DUP6 DUP2 LT ISZERO PUSH3 0x130D JUMPI DUP2 PUSH3 0x12F2 DUP9 DUP3 PUSH3 0x145D JUMP JUMPDEST DUP5 MSTORE PUSH1 0x20 DUP5 ADD SWAP4 POP PUSH1 0x20 DUP4 ADD SWAP3 POP POP PUSH1 0x1 DUP2 ADD SWAP1 POP PUSH3 0x12DC JUMP JUMPDEST POP POP POP SWAP4 SWAP3 POP POP POP JUMP JUMPDEST PUSH1 0x0 PUSH3 0x132E PUSH3 0x1328 DUP5 PUSH3 0x1B9A JUMP JUMPDEST PUSH3 0x1B42 JUMP JUMPDEST SWAP1 POP DUP3 DUP2 MSTORE PUSH1 0x20 DUP2 ADD DUP5 DUP5 DUP5 ADD GT ISZERO PUSH3 0x134D JUMPI PUSH3 0x134C PUSH3 0x1E83 JUMP JUMPDEST JUMPDEST PUSH3 0x135A DUP5 DUP3 DUP6 PUSH3 0x1CF4 JUMP JUMPDEST POP SWAP4 SWAP3 POP POP POP JUMP JUMPDEST PUSH1 0x0 PUSH3 0x1379 PUSH3 0x1373 DUP5 PUSH3 0x1B9A JUMP JUMPDEST PUSH3 0x1B42 JUMP JUMPDEST SWAP1 POP DUP3 DUP2 MSTORE PUSH1 0x20 DUP2 ADD DUP5 DUP5 DUP5 ADD GT ISZERO PUSH3 0x1398 JUMPI PUSH3 0x1397 PUSH3 0x1E83 JUMP JUMPDEST JUMPDEST PUSH3 0x13A5 DUP5 DUP3 DUP6 PUSH3 0x1D03 JUMP JUMPDEST POP SWAP4 SWAP3 POP POP POP JUMP JUMPDEST PUSH1 0x0 DUP3 PUSH1 0x1F DUP4 ADD SLT PUSH3 0x13C5 JUMPI PUSH3 0x13C4 PUSH3 0x1E79 JUMP JUMPDEST JUMPDEST DUP2 CALLDATALOAD PUSH3 0x13D7 DUP5 DUP3 PUSH1 0x20 DUP7 ADD PUSH3 0x129C JUMP JUMPDEST SWAP2 POP POP SWAP3 SWAP2 POP POP JUMP JUMPDEST PUSH1 0x0 DUP2 MLOAD SWAP1 POP PUSH3 0x13F1 DUP2 PUSH3 0x200E JUMP JUMPDEST SWAP3 SWAP2 POP POP JUMP JUMPDEST PUSH1 0x0 DUP3 PUSH1 0x1F DUP4 ADD SLT PUSH3 0x140F JUMPI PUSH3 0x140E PUSH3 0x1E79 JUMP JUMPDEST JUMPDEST DUP2 CALLDATALOAD PUSH3 0x1421 DUP5 DUP3 PUSH1 0x20 DUP7 ADD PUSH3 0x1317 JUMP JUMPDEST SWAP2 POP POP SWAP3 SWAP2 POP POP JUMP JUMPDEST PUSH1 0x0 DUP3 PUSH1 0x1F DUP4 ADD SLT PUSH3 0x1442 JUMPI PUSH3 0x1441 PUSH3 0x1E79 JUMP JUMPDEST JUMPDEST DUP2 MLOAD PUSH3 0x1454 DUP5 DUP3 PUSH1 0x20 DUP7 ADD PUSH3 0x1362 JUMP JUMPDEST SWAP2 POP POP SWAP3 SWAP2 POP POP JUMP JUMPDEST PUSH1 0x0 DUP2 CALLDATALOAD SWAP1 POP PUSH3 0x146E DUP2 PUSH3 0x2028 JUMP JUMPDEST SWAP3 SWAP2 POP POP JUMP JUMPDEST PUSH1 0x0 DUP2 MLOAD SWAP1 POP PUSH3 0x1485 DUP2 PUSH3 0x2028 JUMP JUMPDEST SWAP3 SWAP2 POP POP JUMP JUMPDEST PUSH1 0x0 PUSH1 0x20 DUP3 DUP5 SUB SLT ISZERO PUSH3 0x14A4 JUMPI PUSH3 0x14A3 PUSH3 0x1E8D JUMP JUMPDEST JUMPDEST PUSH1 0x0 DUP3 ADD CALLDATALOAD PUSH8 0xFFFFFFFFFFFFFFFF DUP2 GT ISZERO PUSH3 0x14C5 JUMPI PUSH3 0x14C4 PUSH3 0x1E88 JUMP JUMPDEST JUMPDEST PUSH3 0x14D3 DUP5 DUP3 DUP6 ADD PUSH3 0x13AD JUMP JUMPDEST SWAP2 POP POP SWAP3 SWAP2 POP POP JUMP JUMPDEST PUSH1 0x0 PUSH1 0x20 DUP3 DUP5 SUB SLT ISZERO PUSH3 0x14F5 JUMPI PUSH3 0x14F4 PUSH3 0x1E8D JUMP JUMPDEST JUMPDEST PUSH1 0x0 PUSH3 0x1505 DUP5 DUP3 DUP6 ADD PUSH3 0x13E0 JUMP JUMPDEST SWAP2 POP POP SWAP3 SWAP2 POP POP JUMP JUMPDEST PUSH1 0x0 PUSH1 0x20 DUP3 DUP5 SUB SLT ISZERO PUSH3 0x1527 JUMPI PUSH3 0x1526 PUSH3 0x1E8D JUMP JUMPDEST JUMPDEST PUSH1 0x0 DUP3 ADD MLOAD PUSH8 0xFFFFFFFFFFFFFFFF DUP2 GT ISZERO PUSH3 0x1548 JUMPI PUSH3 0x1547 PUSH3 0x1E88 JUMP JUMPDEST JUMPDEST PUSH3 0x1556 DUP5 DUP3 DUP6 ADD PUSH3 0x142A JUMP JUMPDEST SWAP2 POP POP SWAP3 SWAP2 POP POP JUMP JUMPDEST PUSH1 0x0 DUP1 PUSH1 0x40 DUP4 DUP6 SUB SLT ISZERO PUSH3 0x1579 JUMPI PUSH3 0x1578 PUSH3 0x1E8D JUMP JUMPDEST JUMPDEST PUSH1 0x0 DUP4 ADD CALLDATALOAD PUSH8 0xFFFFFFFFFFFFFFFF DUP2 GT ISZERO PUSH3 0x159A JUMPI PUSH3 0x1599 PUSH3 0x1E88 JUMP JUMPDEST JUMPDEST PUSH3 0x15A8 DUP6 DUP3 DUP7 ADD PUSH3 0x13F7 JUMP JUMPDEST SWAP3 POP POP PUSH1 0x20 DUP4 ADD CALLDATALOAD PUSH8 0xFFFFFFFFFFFFFFFF DUP2 GT ISZERO PUSH3 0x15CC JUMPI PUSH3 0x15CB PUSH3 0x1E88 JUMP JUMPDEST JUMPDEST PUSH3 0x15DA DUP6 DUP3 DUP7 ADD PUSH3 0x13F7 JUMP JUMPDEST SWAP2 POP POP SWAP3 POP SWAP3 SWAP1 POP JUMP JUMPDEST PUSH1 0x0 PUSH1 0x20 DUP3 DUP5 SUB SLT ISZERO PUSH3 0x15FD JUMPI PUSH3 0x15FC PUSH3 0x1E8D JUMP JUMPDEST JUMPDEST PUSH1 0x0 PUSH3 0x160D DUP5 DUP3 DUP6 ADD PUSH3 0x145D JUMP JUMPDEST SWAP2 POP POP SWAP3 SWAP2 POP POP JUMP JUMPDEST PUSH1 0x0 PUSH1 0x20 DUP3 DUP5 SUB SLT ISZERO PUSH3 0x162F JUMPI PUSH3 0x162E PUSH3 0x1E8D JUMP JUMPDEST JUMPDEST PUSH1 0x0 PUSH3 0x163F DUP5 DUP3 DUP6 ADD PUSH3 0x1474 JUMP JUMPDEST SWAP2 POP POP SWAP3 SWAP2 POP POP JUMP JUMPDEST PUSH3 0x1653 DUP2 PUSH3 0x1C5A JUMP JUMPDEST DUP3 MSTORE POP POP JUMP JUMPDEST PUSH3 0x1664 DUP2 PUSH3 0x1CA4 JUMP JUMPDEST DUP3 MSTORE POP POP JUMP JUMPDEST PUSH3 0x1675 DUP2 PUSH3 0x1CB8 JUMP JUMPDEST DUP3 MSTORE POP POP JUMP JUMPDEST PUSH3 0x1686 DUP2 PUSH3 0x1CCC JUMP JUMPDEST DUP3 MSTORE POP POP JUMP JUMPDEST PUSH3 0x1697 DUP2 PUSH3 0x1CE0 JUMP JUMPDEST DUP3 MSTORE POP POP JUMP JUMPDEST PUSH1 0x0 PUSH3 0x16AA DUP3 PUSH3 0x1BD0 JUMP JUMPDEST PUSH3 0x16B6 DUP2 DUP6 PUSH3 0x1BDB JUMP JUMPDEST SWAP4 POP PUSH3 0x16C8 DUP2 DUP6 PUSH1 0x20 DUP7 ADD PUSH3 0x1D03 JUMP JUMPDEST PUSH3 0x16D3 DUP2 PUSH3 0x1E92 JUMP JUMPDEST DUP5 ADD SWAP2 POP POP SWAP3 SWAP2 POP POP JUMP JUMPDEST PUSH1 0x0 PUSH3 0x16EB DUP3 PUSH3 0x1BD0 JUMP JUMPDEST PUSH3 0x16F7 DUP2 DUP6 PUSH3 0x1BEC JUMP JUMPDEST SWAP4 POP PUSH3 0x1709 DUP2 DUP6 PUSH1 0x20 DUP7 ADD PUSH3 0x1D03 JUMP JUMPDEST PUSH3 0x1714 DUP2 PUSH3 0x1E92 JUMP JUMPDEST DUP5 ADD SWAP2 POP POP SWAP3 SWAP2 POP POP JUMP JUMPDEST PUSH1 0x0 PUSH3 0x172E PUSH1 0x9 DUP4 PUSH3 0x1BEC JUMP JUMPDEST SWAP2 POP PUSH3 0x173B DUP3 PUSH3 0x1EA3 JUMP JUMPDEST PUSH1 0x20 DUP3 ADD SWAP1 POP SWAP2 SWAP1 POP JUMP JUMPDEST PUSH1 0x0 PUSH3 0x1755 PUSH1 0x5 DUP4 PUSH3 0x1BEC JUMP JUMPDEST SWAP2 POP PUSH3 0x1762 DUP3 PUSH3 0x1ECC JUMP JUMPDEST PUSH1 0x20 DUP3 ADD SWAP1 POP SWAP2 SWAP1 POP JUMP JUMPDEST PUSH1 0x0 PUSH3 0x177C PUSH1 0x6 DUP4 PUSH3 0x1BEC JUMP JUMPDEST SWAP2 POP PUSH3 0x1789 DUP3 PUSH3 0x1EF5 JUMP JUMPDEST PUSH1 0x20 DUP3 ADD SWAP1 POP SWAP2 SWAP1 POP JUMP JUMPDEST PUSH1 0x0 PUSH3 0x17A3 PUSH1 0x4 DUP4 PUSH3 0x1BDB JUMP JUMPDEST SWAP2 POP PUSH3 0x17B0 DUP3 PUSH3 0x1F1E JUMP JUMPDEST PUSH1 0x20 DUP3 ADD SWAP1 POP SWAP2 SWAP1 POP JUMP JUMPDEST PUSH1 0x0 PUSH3 0x17CA PUSH1 0x1D DUP4 PUSH3 0x1BEC JUMP JUMPDEST SWAP2 POP PUSH3 0x17D7 DUP3 PUSH3 0x1F47 JUMP JUMPDEST PUSH1 0x20 DUP3 ADD SWAP1 POP SWAP2 SWAP1 POP JUMP JUMPDEST PUSH1 0x0 PUSH3 0x17F1 PUSH1 0x32 DUP4 PUSH3 0x1BDB JUMP JUMPDEST SWAP2 POP PUSH3 0x17FE DUP3 PUSH3 0x1F70 JUMP JUMPDEST PUSH1 0x40 DUP3 ADD SWAP1 POP SWAP2 SWAP1 POP JUMP JUMPDEST PUSH1 0x0 PUSH3 0x1818 PUSH1 0x21 DUP4 PUSH3 0x1BDB JUMP JUMPDEST SWAP2 POP PUSH3 0x1825 DUP3 PUSH3 0x1FBF JUMP JUMPDEST PUSH1 0x40 DUP3 ADD SWAP1 POP SWAP2 SWAP1 POP JUMP JUMPDEST PUSH3 0x183B DUP2 PUSH3 0x1C9A JUMP JUMPDEST DUP3 MSTORE POP POP JUMP JUMPDEST PUSH3 0x184C DUP2 PUSH3 0x1C9A JUMP JUMPDEST DUP3 MSTORE POP POP JUMP JUMPDEST PUSH1 0x0 PUSH1 0x20 DUP3 ADD SWAP1 POP PUSH3 0x1869 PUSH1 0x0 DUP4 ADD DUP5 PUSH3 0x1648 JUMP JUMPDEST SWAP3 SWAP2 POP POP JUMP JUMPDEST PUSH1 0x0 PUSH1 0x60 DUP3 ADD SWAP1 POP PUSH3 0x1886 PUSH1 0x0 DUP4 ADD DUP7 PUSH3 0x1648 JUMP JUMPDEST PUSH3 0x1895 PUSH1 0x20 DUP4 ADD DUP6 PUSH3 0x1648 JUMP JUMPDEST DUP2 DUP2 SUB PUSH1 0x40 DUP4 ADD MSTORE PUSH3 0x18A9 DUP2 DUP5 PUSH3 0x169D JUMP JUMPDEST SWAP1 POP SWAP5 SWAP4 POP POP POP POP JUMP JUMPDEST PUSH1 0x0 PUSH1 0x20 DUP3 ADD SWAP1 POP DUP2 DUP2 SUB PUSH1 0x0 DUP4 ADD MSTORE PUSH3 0x18CF DUP2 DUP5 PUSH3 0x169D JUMP JUMPDEST SWAP1 POP SWAP3 SWAP2 POP POP JUMP JUMPDEST PUSH1 0x0 PUSH1 0x40 DUP3 ADD SWAP1 POP DUP2 DUP2 SUB PUSH1 0x0 DUP4 ADD MSTORE PUSH3 0x18F3 DUP2 DUP6 PUSH3 0x169D JUMP JUMPDEST SWAP1 POP DUP2 DUP2 SUB PUSH1 0x20 DUP4 ADD MSTORE PUSH3 0x1909 DUP2 DUP5 PUSH3 0x169D JUMP JUMPDEST SWAP1 POP SWAP4 SWAP3 POP POP POP JUMP JUMPDEST PUSH1 0x0 PUSH1 0x60 DUP3 ADD SWAP1 POP DUP2 DUP2 SUB PUSH1 0x0 DUP4 ADD MSTORE PUSH3 0x192E DUP2 DUP5 PUSH3 0x16DE JUMP JUMPDEST SWAP1 POP DUP2 DUP2 SUB PUSH1 0x20 DUP4 ADD MSTORE PUSH3 0x1943 DUP2 PUSH3 0x1746 JUMP JUMPDEST SWAP1 POP DUP2 DUP2 SUB PUSH1 0x40 DUP4 ADD MSTORE PUSH3 0x1958 DUP2 PUSH3 0x171F JUMP JUMPDEST SWAP1 POP SWAP3 SWAP2 POP POP JUMP JUMPDEST PUSH1 0x0 PUSH1 0x40 DUP3 ADD SWAP1 POP DUP2 DUP2 SUB PUSH1 0x0 DUP4 ADD MSTORE PUSH3 0x197B DUP2 PUSH3 0x1794 JUMP JUMPDEST SWAP1 POP DUP2 DUP2 SUB PUSH1 0x20 DUP4 ADD MSTORE PUSH3 0x1990 DUP2 PUSH3 0x1794 JUMP JUMPDEST SWAP1 POP SWAP2 SWAP1 POP JUMP JUMPDEST PUSH1 0x0 PUSH1 0x20 DUP3 ADD SWAP1 POP DUP2 DUP2 SUB PUSH1 0x0 DUP4 ADD MSTORE PUSH3 0x19B2 DUP2 PUSH3 0x17E2 JUMP JUMPDEST SWAP1 POP SWAP2 SWAP1 POP JUMP JUMPDEST PUSH1 0x0 PUSH1 0x20 DUP3 ADD SWAP1 POP DUP2 DUP2 SUB PUSH1 0x0 DUP4 ADD MSTORE PUSH3 0x19D4 DUP2 PUSH3 0x1809 JUMP JUMPDEST SWAP1 POP SWAP2 SWAP1 POP JUMP JUMPDEST PUSH1 0x0 PUSH1 0x20 DUP3 ADD SWAP1 POP PUSH3 0x19F2 PUSH1 0x0 DUP4 ADD DUP5 PUSH3 0x1830 JUMP JUMPDEST SWAP3 SWAP2 POP POP JUMP JUMPDEST PUSH1 0x0 PUSH1 0x60 DUP3 ADD SWAP1 POP PUSH3 0x1A0F PUSH1 0x0 DUP4 ADD DUP6 PUSH3 0x1841 JUMP JUMPDEST PUSH3 0x1A1E PUSH1 0x20 DUP4 ADD DUP5 PUSH3 0x1659 JUMP JUMPDEST DUP2 DUP2 SUB PUSH1 0x40 DUP4 ADD MSTORE PUSH3 0x1A31 DUP2 PUSH3 0x176D JUMP JUMPDEST SWAP1 POP SWAP4 SWAP3 POP POP POP JUMP JUMPDEST PUSH1 0x0 PUSH1 0x60 DUP3 ADD SWAP1 POP PUSH3 0x1A51 PUSH1 0x0 DUP4 ADD DUP6 PUSH3 0x1841 JUMP JUMPDEST PUSH3 0x1A60 PUSH1 0x20 DUP4 ADD DUP5 PUSH3 0x1659 JUMP JUMPDEST DUP2 DUP2 SUB PUSH1 0x40 DUP4 ADD MSTORE PUSH3 0x1A73 DUP2 PUSH3 0x17BB JUMP JUMPDEST SWAP1 POP SWAP4 SWAP3 POP POP POP JUMP JUMPDEST PUSH1 0x0 PUSH1 0x60 DUP3 ADD SWAP1 POP PUSH3 0x1A93 PUSH1 0x0 DUP4 ADD DUP6 PUSH3 0x1841 JUMP JUMPDEST PUSH3 0x1AA2 PUSH1 0x20 DUP4 ADD DUP5 PUSH3 0x166A JUMP JUMPDEST DUP2 DUP2 SUB PUSH1 0x40 DUP4 ADD MSTORE PUSH3 0x1AB5 DUP2 PUSH3 0x176D JUMP JUMPDEST SWAP1 POP SWAP4 SWAP3 POP POP POP JUMP JUMPDEST PUSH1 0x0 PUSH1 0x60 DUP3 ADD SWAP1 POP PUSH3 0x1AD5 PUSH1 0x0 DUP4 ADD DUP6 PUSH3 0x1841 JUMP JUMPDEST PUSH3 0x1AE4 PUSH1 0x20 DUP4 ADD DUP5 PUSH3 0x167B JUMP JUMPDEST DUP2 DUP2 SUB PUSH1 0x40 DUP4 ADD MSTORE PUSH3 0x1AF7 DUP2 PUSH3 0x176D JUMP JUMPDEST SWAP1 POP SWAP4 SWAP3 POP POP POP JUMP JUMPDEST PUSH1 0x0 PUSH1 0x60 DUP3 ADD SWAP1 POP PUSH3 0x1B17 PUSH1 0x0 DUP4 ADD DUP6 PUSH3 0x1841 JUMP JUMPDEST PUSH3 0x1B26 PUSH1 0x20 DUP4 ADD DUP5 PUSH3 0x168C JUMP JUMPDEST DUP2 DUP2 SUB PUSH1 0x40 DUP4 ADD MSTORE PUSH3 0x1B39 DUP2 PUSH3 0x176D JUMP JUMPDEST SWAP1 POP SWAP4 SWAP3 POP POP POP JUMP JUMPDEST PUSH1 0x0 PUSH3 0x1B4E PUSH3 0x1B61 JUMP JUMPDEST SWAP1 POP PUSH3 0x1B5C DUP3 DUP3 PUSH3 0x1D39 JUMP JUMPDEST SWAP2 SWAP1 POP JUMP JUMPDEST PUSH1 0x0 PUSH1 0x40 MLOAD SWAP1 POP SWAP1 JUMP JUMPDEST PUSH1 0x0 PUSH8 0xFFFFFFFFFFFFFFFF DUP3 GT ISZERO PUSH3 0x1B89 JUMPI PUSH3 0x1B88 PUSH3 0x1E4A JUMP JUMPDEST JUMPDEST PUSH1 0x20 DUP3 MUL SWAP1 POP PUSH1 0x20 DUP2 ADD SWAP1 POP SWAP2 SWAP1 POP JUMP JUMPDEST PUSH1 0x0 PUSH8 0xFFFFFFFFFFFFFFFF DUP3 GT ISZERO PUSH3 0x1BB8 JUMPI PUSH3 0x1BB7 PUSH3 0x1E4A JUMP JUMPDEST JUMPDEST PUSH3 0x1BC3 DUP3 PUSH3 0x1E92 JUMP JUMPDEST SWAP1 POP PUSH1 0x20 DUP2 ADD SWAP1 POP SWAP2 SWAP1 POP JUMP JUMPDEST PUSH1 0x0 DUP2 MLOAD SWAP1 POP SWAP2 SWAP1 POP JUMP JUMPDEST PUSH1 0x0 DUP3 DUP3 MSTORE PUSH1 0x20 DUP3 ADD SWAP1 POP SWAP3 SWAP2 POP POP JUMP JUMPDEST PUSH1 0x0 DUP3 DUP3 MSTORE PUSH1 0x20 DUP3 ADD SWAP1 POP SWAP3 SWAP2 POP POP JUMP JUMPDEST PUSH1 0x0 PUSH3 0x1C0A DUP3 PUSH3 0x1C9A JUMP JUMPDEST SWAP2 POP PUSH3 0x1C17 DUP4 PUSH3 0x1C9A JUMP JUMPDEST SWAP3 POP DUP3 PUSH32 0xFFFFFFFFFFFFFFFFFFFFFFFFFFFFFFFFFFFFFFFFFFFFFFFFFFFFFFFFFFFFFFFF SUB DUP3 GT ISZERO PUSH3 0x1C4F JUMPI PUSH3 0x1C4E PUSH3 0x1DEC JUMP JUMPDEST JUMPDEST DUP3 DUP3 ADD SWAP1 POP SWAP3 SWAP2 POP POP JUMP JUMPDEST PUSH1 0x0 PUSH3 0x1C67 DUP3 PUSH3 0x1C7A JUMP JUMPDEST SWAP1 POP SWAP2 SWAP1 POP JUMP JUMPDEST PUSH1 0x0 DUP2 ISZERO ISZERO SWAP1 POP SWAP2 SWAP1 POP JUMP JUMPDEST PUSH1 0x0 PUSH20 0xFFFFFFFFFFFFFFFFFFFFFFFFFFFFFFFFFFFFFFFF DUP3 AND SWAP1 POP SWAP2 SWAP1 POP JUMP JUMPDEST PUSH1 0x0 DUP2 SWAP1 POP SWAP2 SWAP1 POP JUMP JUMPDEST PUSH1 0x0 PUSH3 0x1CB1 DUP3 PUSH3 0x1C9A JUMP JUMPDEST SWAP1 POP SWAP2 SWAP1 POP JUMP JUMPDEST PUSH1 0x0 PUSH3 0x1CC5 DUP3 PUSH3 0x1C9A JUMP JUMPDEST SWAP1 POP SWAP2 SWAP1 POP JUMP JUMPDEST PUSH1 0x0 PUSH3 0x1CD9 DUP3 PUSH3 0x1C9A JUMP JUMPDEST SWAP1 POP SWAP2 SWAP1 POP JUMP JUMPDEST PUSH1 0x0 PUSH3 0x1CED DUP3 PUSH3 0x1C9A JUMP JUMPDEST SWAP1 POP SWAP2 SWAP1 POP JUMP JUMPDEST DUP3 DUP2 DUP4 CALLDATACOPY PUSH1 0x0 DUP4 DUP4 ADD MSTORE POP POP POP JUMP JUMPDEST PUSH1 0x0 JUMPDEST DUP4 DUP2 LT ISZERO PUSH3 0x1D23 JUMPI DUP1 DUP3 ADD MLOAD DUP2 DUP5 ADD MSTORE PUSH1 0x20 DUP2 ADD SWAP1 POP PUSH3 0x1D06 JUMP JUMPDEST DUP4 DUP2 GT ISZERO PUSH3 0x1D33 JUMPI PUSH1 0x0 DUP5 DUP5 ADD MSTORE JUMPDEST POP POP POP POP JUMP JUMPDEST PUSH3 0x1D44 DUP3 PUSH3 0x1E92 JUMP JUMPDEST DUP2 ADD DUP2 DUP2 LT PUSH8 0xFFFFFFFFFFFFFFFF DUP3 GT OR ISZERO PUSH3 0x1D66 JUMPI PUSH3 0x1D65 PUSH3 0x1E4A JUMP JUMPDEST JUMPDEST DUP1 PUSH1 0x40 MSTORE POP POP POP JUMP JUMPDEST PUSH1 0x0 PUSH3 0x1D7C DUP3 PUSH3 0x1C9A JUMP JUMPDEST SWAP2 POP PUSH32 0xFFFFFFFFFFFFFFFFFFFFFFFFFFFFFFFFFFFFFFFFFFFFFFFFFFFFFFFFFFFFFFFF DUP3 EQ ISZERO PUSH3 0x1DB2 JUMPI PUSH3 0x1DB1 PUSH3 0x1DEC JUMP JUMPDEST JUMPDEST PUSH1 0x1 DUP3 ADD SWAP1 POP SWAP2 SWAP1 POP JUMP JUMPDEST PUSH32 0x4E487B7100000000000000000000000000000000000000000000000000000000 PUSH1 0x0 MSTORE PUSH1 0x1 PUSH1 0x4 MSTORE PUSH1 0x24 PUSH1 0x0 REVERT JUMPDEST PUSH32 0x4E487B7100000000000000000000000000000000000000000000000000000000 PUSH1 0x0 MSTORE PUSH1 0x11 PUSH1 0x4 MSTORE PUSH1 0x24 PUSH1 0x0 REVERT JUMPDEST PUSH32 0x4E487B7100000000000000000000000000000000000000000000000000000000 PUSH1 0x0 MSTORE PUSH1 0x32 PUSH1 0x4 MSTORE PUSH1 0x24 PUSH1 0x0 REVERT JUMPDEST PUSH32 0x4E487B7100000000000000000000000000000000000000000000000000000000 PUSH1 0x0 MSTORE PUSH1 0x41 PUSH1 0x4 MSTORE PUSH1 0x24 PUSH1 0x0 REVERT JUMPDEST PUSH1 0x0 DUP1 REVERT JUMPDEST PUSH1 0x0 DUP1 REVERT JUMPDEST PUSH1 0x0 DUP1 REVERT JUMPDEST PUSH1 0x0 DUP1 REVERT JUMPDEST PUSH1 0x0 DUP1 REVERT JUMPDEST PUSH1 0x0 PUSH1 0x1F NOT PUSH1 0x1F DUP4 ADD AND SWAP1 POP SWAP2 SWAP1 POP JUMP JUMPDEST PUSH32 0x6E6F742072696768740000000000000000000000000000000000000000000000 PUSH1 0x0 DUP3 ADD MSTORE POP JUMP JUMPDEST PUSH32 0x7061726B32000000000000000000000000000000000000000000000000000000 PUSH1 0x0 DUP3 ADD MSTORE POP JUMP JUMPDEST PUSH32 0x4661696C65640000000000000000000000000000000000000000000000000000 PUSH1 0x0 DUP3 ADD MSTORE POP JUMP JUMPDEST PUSH32 0x5465737400000000000000000000000000000000000000000000000000000000 PUSH1 0x0 DUP3 ADD MSTORE POP JUMP JUMPDEST PUSH32 0x4661696C6564207768656E2067656E65726174696E6720637265646974000000 PUSH1 0x0 DUP3 ADD MSTORE POP JUMP JUMPDEST PUSH32 0x43616E206F6E6C7920626520657865637574656420627920746865206F776E65 PUSH1 0x0 DUP3 ADD MSTORE PUSH32 0x72206F6620746869732072656769737472790000000000000000000000000000 PUSH1 0x20 DUP3 ADD MSTORE POP JUMP JUMPDEST PUSH32 0x4E6F20747265652069732061742074686520696E646578207265717565737465 PUSH1 0x0 DUP3 ADD MSTORE PUSH32 0x6400000000000000000000000000000000000000000000000000000000000000 PUSH1 0x20 DUP3 ADD MSTORE POP JUMP JUMPDEST PUSH3 0x2019 DUP2 PUSH3 0x1C6E JUMP JUMPDEST DUP2 EQ PUSH3 0x2025 JUMPI PUSH1 0x0 DUP1 REVERT JUMPDEST POP JUMP JUMPDEST PUSH3 0x2033 DUP2 PUSH3 0x1C9A JUMP JUMPDEST DUP2 EQ PUSH3 0x203F JUMPI PUSH1 0x0 DUP1 REVERT JUMPDEST POP JUMP INVALID PUSH1 0x80 PUSH1 0x40 MSTORE CALLVALUE DUP1 ISZERO PUSH3 0x11 JUMPI PUSH1 0x0 DUP1 REVERT JUMPDEST POP PUSH1 0x40 MLOAD PUSH3 0xF3C CODESIZE SUB DUP1 PUSH3 0xF3C DUP4 CODECOPY DUP2 DUP2 ADD PUSH1 0x40 MSTORE DUP2 ADD SWAP1 PUSH3 0x37 SWAP2 SWAP1 PUSH3 0x394 JUMP JUMPDEST CALLER PUSH1 0x0 DUP1 PUSH2 0x100 EXP DUP2 SLOAD DUP2 PUSH20 0xFFFFFFFFFFFFFFFFFFFFFFFFFFFFFFFFFFFFFFFF MUL NOT AND SWAP1 DUP4 PUSH20 0xFFFFFFFFFFFFFFFFFFFFFFFFFFFFFFFFFFFFFFFF AND MUL OR SWAP1 SSTORE POP DUP1 PUSH1 0x4 SWAP1 DUP1 MLOAD SWAP1 PUSH1 0x20 ADD SWAP1 PUSH3 0x8F SWAP3 SWAP2 SWAP1 PUSH3 0x266 JUMP JUMPDEST POP DUP2 PUSH1 0x3 SWAP1 DUP1 MLOAD SWAP1 PUSH1 0x20 ADD SWAP1 PUSH3 0xA8 SWAP3 SWAP2 SWAP1 PUSH3 0x266 JUMP JUMPDEST POP PUSH1 0xFA PUSH1 0x5 DUP2 SWAP1 SSTORE POP PUSH3 0x18F PUSH1 0x40 MLOAD DUP1 PUSH1 0x40 ADD PUSH1 0x40 MSTORE DUP1 PUSH1 0x14 DUP2 MSTORE PUSH1 0x20 ADD PUSH32 0x74726565206C6F63206F75747075742069733A20000000000000000000000000 DUP2 MSTORE POP PUSH1 0x4 DUP1 SLOAD PUSH3 0xFA SWAP1 PUSH3 0x546 JUMP JUMPDEST DUP1 PUSH1 0x1F ADD PUSH1 0x20 DUP1 SWAP2 DIV MUL PUSH1 0x20 ADD PUSH1 0x40 MLOAD SWAP1 DUP2 ADD PUSH1 0x40 MSTORE DUP1 SWAP3 SWAP2 SWAP1 DUP2 DUP2 MSTORE PUSH1 0x20 ADD DUP3 DUP1 SLOAD PUSH3 0x128 SWAP1 PUSH3 0x546 JUMP JUMPDEST DUP1 ISZERO PUSH3 0x179 JUMPI DUP1 PUSH1 0x1F LT PUSH3 0x14D JUMPI PUSH2 0x100 DUP1 DUP4 SLOAD DIV MUL DUP4 MSTORE SWAP2 PUSH1 0x20 ADD SWAP2 PUSH3 0x179 JUMP JUMPDEST DUP3 ADD SWAP2 SWAP1 PUSH1 0x0 MSTORE PUSH1 0x20 PUSH1 0x0 KECCAK256 SWAP1 JUMPDEST DUP2 SLOAD DUP2 MSTORE SWAP1 PUSH1 0x1 ADD SWAP1 PUSH1 0x20 ADD DUP1 DUP4 GT PUSH3 0x15B JUMPI DUP3 SWAP1 SUB PUSH1 0x1F AND DUP3 ADD SWAP2 JUMPDEST POP POP POP POP POP PUSH3 0x197 PUSH1 0x20 SHL PUSH3 0x521 OR PUSH1 0x20 SHR JUMP JUMPDEST POP POP PUSH3 0x635 JUMP JUMPDEST PUSH3 0x239 DUP3 DUP3 PUSH1 0x40 MLOAD PUSH1 0x24 ADD PUSH3 0x1B0 SWAP3 SWAP2 SWAP1 PUSH3 0x45A JUMP JUMPDEST PUSH1 0x40 MLOAD PUSH1 0x20 DUP2 DUP4 SUB SUB DUP2 MSTORE SWAP1 PUSH1 0x40 MSTORE PUSH32 0x4B5C427700000000000000000000000000000000000000000000000000000000 PUSH28 0xFFFFFFFFFFFFFFFFFFFFFFFFFFFFFFFFFFFFFFFFFFFFFFFFFFFFFFFF NOT AND PUSH1 0x20 DUP3 ADD DUP1 MLOAD PUSH28 0xFFFFFFFFFFFFFFFFFFFFFFFFFFFFFFFFFFFFFFFFFFFFFFFFFFFFFFFF DUP4 DUP2 DUP4 AND OR DUP4 MSTORE POP POP POP POP PUSH3 0x23D PUSH1 0x20 SHL PUSH1 0x20 SHR JUMP JUMPDEST POP POP JUMP JUMPDEST PUSH1 0x0 DUP2 MLOAD SWAP1 POP PUSH1 0x0 PUSH11 0x636F6E736F6C652E6C6F67 SWAP1 POP PUSH1 0x20 DUP4 ADD PUSH1 0x0 DUP1 DUP5 DUP4 DUP6 GAS STATICCALL POP POP POP POP POP JUMP JUMPDEST DUP3 DUP1 SLOAD PUSH3 0x274 SWAP1 PUSH3 0x546 JUMP JUMPDEST SWAP1 PUSH1 0x0 MSTORE PUSH1 0x20 PUSH1 0x0 KECCAK256 SWAP1 PUSH1 0x1F ADD PUSH1 0x20 SWAP1 DIV DUP2 ADD SWAP3 DUP3 PUSH3 0x298 JUMPI PUSH1 0x0 DUP6 SSTORE PUSH3 0x2E4 JUMP JUMPDEST DUP3 PUSH1 0x1F LT PUSH3 0x2B3 JUMPI DUP1 MLOAD PUSH1 0xFF NOT AND DUP4 DUP1 ADD OR DUP6 SSTORE PUSH3 0x2E4 JUMP JUMPDEST DUP3 DUP1 ADD PUSH1 0x1 ADD DUP6 SSTORE DUP3 ISZERO PUSH3 0x2E4 JUMPI SWAP2 DUP3 ADD JUMPDEST DUP3 DUP2 GT ISZERO PUSH3 0x2E3 JUMPI DUP3 MLOAD DUP3 SSTORE SWAP2 PUSH1 0x20 ADD SWAP2 SWAP1 PUSH1 0x1 ADD SWAP1 PUSH3 0x2C6 JUMP JUMPDEST JUMPDEST POP SWAP1 POP PUSH3 0x2F3 SWAP2 SWAP1 PUSH3 0x2F7 JUMP JUMPDEST POP SWAP1 JUMP JUMPDEST JUMPDEST DUP1 DUP3 GT ISZERO PUSH3 0x312 JUMPI PUSH1 0x0 DUP2 PUSH1 0x0 SWAP1 SSTORE POP PUSH1 0x1 ADD PUSH3 0x2F8 JUMP JUMPDEST POP SWAP1 JUMP JUMPDEST PUSH1 0x0 PUSH3 0x32D PUSH3 0x327 DUP5 PUSH3 0x4BE JUMP JUMPDEST PUSH3 0x495 JUMP JUMPDEST SWAP1 POP DUP3 DUP2 MSTORE PUSH1 0x20 DUP2 ADD DUP5 DUP5 DUP5 ADD GT ISZERO PUSH3 0x34C JUMPI PUSH3 0x34B PUSH3 0x615 JUMP JUMPDEST JUMPDEST PUSH3 0x359 DUP5 DUP3 DUP6 PUSH3 0x510 JUMP JUMPDEST POP SWAP4 SWAP3 POP POP POP JUMP JUMPDEST PUSH1 0x0 DUP3 PUSH1 0x1F DUP4 ADD SLT PUSH3 0x379 JUMPI PUSH3 0x378 PUSH3 0x610 JUMP JUMPDEST JUMPDEST DUP2 MLOAD PUSH3 0x38B DUP5 DUP3 PUSH1 0x20 DUP7 ADD PUSH3 0x316 JUMP JUMPDEST SWAP2 POP POP SWAP3 SWAP2 POP POP JUMP JUMPDEST PUSH1 0x0 DUP1 PUSH1 0x40 DUP4 DUP6 SUB SLT ISZERO PUSH3 0x3AE JUMPI PUSH3 0x3AD PUSH3 0x61F JUMP JUMPDEST JUMPDEST PUSH1 0x0 DUP4 ADD MLOAD PUSH8 0xFFFFFFFFFFFFFFFF DUP2 GT ISZERO PUSH3 0x3CF JUMPI PUSH3 0x3CE PUSH3 0x61A JUMP JUMPDEST JUMPDEST PUSH3 0x3DD DUP6 DUP3 DUP7 ADD PUSH3 0x361 JUMP JUMPDEST SWAP3 POP POP PUSH1 0x20 DUP4 ADD MLOAD PUSH8 0xFFFFFFFFFFFFFFFF DUP2 GT ISZERO PUSH3 0x401 JUMPI PUSH3 0x400 PUSH3 0x61A JUMP JUMPDEST JUMPDEST PUSH3 0x40F DUP6 DUP3 DUP7 ADD PUSH3 0x361 JUMP JUMPDEST SWAP2 POP POP SWAP3 POP SWAP3 SWAP1 POP JUMP JUMPDEST PUSH1 0x0 PUSH3 0x426 DUP3 PUSH3 0x4F4 JUMP JUMPDEST PUSH3 0x432 DUP2 DUP6 PUSH3 0x4FF JUMP JUMPDEST SWAP4 POP PUSH3 0x444 DUP2 DUP6 PUSH1 0x20 DUP7 ADD PUSH3 0x510 JUMP JUMPDEST PUSH3 0x44F DUP2 PUSH3 0x624 JUMP JUMPDEST DUP5 ADD SWAP2 POP POP SWAP3 SWAP2 POP POP JUMP JUMPDEST PUSH1 0x0 PUSH1 0x40 DUP3 ADD SWAP1 POP DUP2 DUP2 SUB PUSH1 0x0 DUP4 ADD MSTORE PUSH3 0x476 DUP2 DUP6 PUSH3 0x419 JUMP JUMPDEST SWAP1 POP DUP2 DUP2 SUB PUSH1 0x20 DUP4 ADD MSTORE PUSH3 0x48C DUP2 DUP5 PUSH3 0x419 JUMP JUMPDEST SWAP1 POP SWAP4 SWAP3 POP POP POP JUMP JUMPDEST PUSH1 0x0 PUSH3 0x4A1 PUSH3 0x4B4 JUMP JUMPDEST SWAP1 POP PUSH3 0x4AF DUP3 DUP3 PUSH3 0x57C JUMP JUMPDEST SWAP2 SWAP1 POP JUMP JUMPDEST PUSH1 0x0 PUSH1 0x40 MLOAD SWAP1 POP SWAP1 JUMP JUMPDEST PUSH1 0x0 PUSH8 0xFFFFFFFFFFFFFFFF DUP3 GT ISZERO PUSH3 0x4DC JUMPI PUSH3 0x4DB PUSH3 0x5E1 JUMP JUMPDEST JUMPDEST PUSH3 0x4E7 DUP3 PUSH3 0x624 JUMP JUMPDEST SWAP1 POP PUSH1 0x20 DUP2 ADD SWAP1 POP SWAP2 SWAP1 POP JUMP JUMPDEST PUSH1 0x0 DUP2 MLOAD SWAP1 POP SWAP2 SWAP1 POP JUMP JUMPDEST PUSH1 0x0 DUP3 DUP3 MSTORE PUSH1 0x20 DUP3 ADD SWAP1 POP SWAP3 SWAP2 POP POP JUMP JUMPDEST PUSH1 0x0 JUMPDEST DUP4 DUP2 LT ISZERO PUSH3 0x530 JUMPI DUP1 DUP3 ADD MLOAD DUP2 DUP5 ADD MSTORE PUSH1 0x20 DUP2 ADD SWAP1 POP PUSH3 0x513 JUMP JUMPDEST DUP4 DUP2 GT ISZERO PUSH3 0x540 JUMPI PUSH1 0x0 DUP5 DUP5 ADD MSTORE JUMPDEST POP POP POP POP JUMP JUMPDEST PUSH1 0x0 PUSH1 0x2 DUP3 DIV SWAP1 POP PUSH1 0x1 DUP3 AND DUP1 PUSH3 0x55F JUMPI PUSH1 0x7F DUP3 AND SWAP2 POP JUMPDEST PUSH1 0x20 DUP3 LT DUP2 EQ ISZERO PUSH3 0x576 JUMPI PUSH3 0x575 PUSH3 0x5B2 JUMP JUMPDEST JUMPDEST POP SWAP2 SWAP1 POP JUMP JUMPDEST PUSH3 0x587 DUP3 PUSH3 0x624 JUMP JUMPDEST DUP2 ADD DUP2 DUP2 LT PUSH8 0xFFFFFFFFFFFFFFFF DUP3 GT OR ISZERO PUSH3 0x5A9 JUMPI PUSH3 0x5A8 PUSH3 0x5E1 JUMP JUMPDEST JUMPDEST DUP1 PUSH1 0x40 MSTORE POP POP POP JUMP JUMPDEST PUSH32 0x4E487B7100000000000000000000000000000000000000000000000000000000 PUSH1 0x0 MSTORE PUSH1 0x22 PUSH1 0x4 MSTORE PUSH1 0x24 PUSH1 0x0 REVERT JUMPDEST PUSH32 0x4E487B7100000000000000000000000000000000000000000000000000000000 PUSH1 0x0 MSTORE PUSH1 0x41 PUSH1 0x4 MSTORE PUSH1 0x24 PUSH1 0x0 REVERT JUMPDEST PUSH1 0x0 DUP1 REVERT JUMPDEST PUSH1 0x0 DUP1 REVERT JUMPDEST PUSH1 0x0 DUP1 REVERT JUMPDEST PUSH1 0x0 DUP1 REVERT JUMPDEST PUSH1 0x0 PUSH1 0x1F NOT PUSH1 0x1F DUP4 ADD AND SWAP1 POP SWAP2 SWAP1 POP JUMP JUMPDEST PUSH2 0x8F7 DUP1 PUSH3 0x645 PUSH1 0x0 CODECOPY PUSH1 0x0 RETURN INVALID PUSH1 0x80 PUSH1 0x40 MSTORE CALLVALUE DUP1 ISZERO PUSH2 0x10 JUMPI PUSH1 0x0 DUP1 REVERT JUMPDEST POP PUSH1 0x4 CALLDATASIZE LT PUSH2 0xEA JUMPI PUSH1 0x0 CALLDATALOAD PUSH1 0xE0 SHR DUP1 PUSH4 0x8293989E GT PUSH2 0x8C JUMPI DUP1 PUSH4 0xA767BF6D GT PUSH2 0x66 JUMPI DUP1 PUSH4 0xA767BF6D EQ PUSH2 0x207 JUMPI DUP1 PUSH4 0xB294EF38 EQ PUSH2 0x225 JUMPI DUP1 PUSH4 0xBBB82D89 EQ PUSH2 0x243 JUMPI DUP1 PUSH4 0xF51F96DD EQ PUSH2 0x261 JUMPI PUSH2 0xEA JUMP JUMPDEST DUP1 PUSH4 0x8293989E EQ PUSH2 0x1AD JUMPI DUP1 PUSH4 0x876924A2 EQ PUSH2 0x1CB JUMPI DUP1 PUSH4 0x8DA5CB5B EQ PUSH2 0x1E9 JUMPI PUSH2 0xEA JUMP JUMPDEST DUP1 PUSH4 0x516F279E GT PUSH2 0xC8 JUMPI DUP1 PUSH4 0x516F279E EQ PUSH2 0x149 JUMPI DUP1 PUSH4 0x5FC8EA9A EQ PUSH2 0x167 JUMPI DUP1 PUSH4 0x619B092D EQ PUSH2 0x171 JUMPI DUP1 PUSH4 0x80007E83 EQ PUSH2 0x18F JUMPI PUSH2 0xEA JUMP JUMPDEST DUP1 PUSH4 0x2D05D3F EQ PUSH2 0xEF JUMPI DUP1 PUSH4 0x1C3CF869 EQ PUSH2 0x10D JUMPI DUP1 PUSH4 0x466CCAC0 EQ PUSH2 0x12B JUMPI JUMPDEST PUSH1 0x0 DUP1 REVERT JUMPDEST PUSH2 0xF7 PUSH2 0x27F JUMP JUMPDEST PUSH1 0x40 MLOAD PUSH2 0x104 SWAP2 SWAP1 PUSH2 0x6E5 JUMP JUMPDEST PUSH1 0x40 MLOAD DUP1 SWAP2 SUB SWAP1 RETURN JUMPDEST PUSH2 0x115 PUSH2 0x2A5 JUMP JUMPDEST PUSH1 0x40 MLOAD PUSH2 0x122 SWAP2 SWAP1 PUSH2 0x774 JUMP JUMPDEST PUSH1 0x40 MLOAD DUP1 SWAP2 SUB SWAP1 RETURN JUMPDEST PUSH2 0x133 PUSH2 0x2AB JUMP JUMPDEST PUSH1 0x40 MLOAD PUSH2 0x140 SWAP2 SWAP1 PUSH2 0x700 JUMP JUMPDEST PUSH1 0x40 MLOAD DUP1 SWAP2 SUB SWAP1 RETURN JUMPDEST PUSH2 0x151 PUSH2 0x2BE JUMP JUMPDEST PUSH1 0x40 MLOAD PUSH2 0x15E SWAP2 SWAP1 PUSH2 0x71B JUMP JUMPDEST PUSH1 0x40 MLOAD DUP1 SWAP2 SUB SWAP1 RETURN JUMPDEST PUSH2 0x16F PUSH2 0x34C JUMP JUMPDEST STOP JUMPDEST PUSH2 0x179 PUSH2 0x38A JUMP JUMPDEST PUSH1 0x40 MLOAD PUSH2 0x186 SWAP2 SWAP1 PUSH2 0x774 JUMP JUMPDEST PUSH1 0x40 MLOAD DUP1 SWAP2 SUB SWAP1 RETURN JUMPDEST PUSH2 0x197 PUSH2 0x390 JUMP JUMPDEST PUSH1 0x40 MLOAD PUSH2 0x1A4 SWAP2 SWAP1 PUSH2 0x700 JUMP JUMPDEST PUSH1 0x40 MLOAD DUP1 SWAP2 SUB SWAP1 RETURN JUMPDEST PUSH2 0x1B5 PUSH2 0x3A7 JUMP JUMPDEST PUSH1 0x40 MLOAD PUSH2 0x1C2 SWAP2 SWAP1 PUSH2 0x774 JUMP JUMPDEST PUSH1 0x40 MLOAD DUP1 SWAP2 SUB SWAP1 RETURN JUMPDEST PUSH2 0x1D3 PUSH2 0x3AD JUMP JUMPDEST PUSH1 0x40 MLOAD PUSH2 0x1E0 SWAP2 SWAP1 PUSH2 0x71B JUMP JUMPDEST PUSH1 0x40 MLOAD DUP1 SWAP2 SUB SWAP1 RETURN JUMPDEST PUSH2 0x1F1 PUSH2 0x43B JUMP JUMPDEST PUSH1 0x40 MLOAD PUSH2 0x1FE SWAP2 SWAP1 PUSH2 0x6E5 JUMP JUMPDEST PUSH1 0x40 MLOAD DUP1 SWAP2 SUB SWAP1 RETURN JUMPDEST PUSH2 0x20F PUSH2 0x45F JUMP JUMPDEST PUSH1 0x40 MLOAD PUSH2 0x21C SWAP2 SWAP1 PUSH2 0x774 JUMP JUMPDEST PUSH1 0x40 MLOAD DUP1 SWAP2 SUB SWAP1 RETURN JUMPDEST PUSH2 0x22D PUSH2 0x469 JUMP JUMPDEST PUSH1 0x40 MLOAD PUSH2 0x23A SWAP2 SWAP1 PUSH2 0x71B JUMP JUMPDEST PUSH1 0x40 MLOAD DUP1 SWAP2 SUB SWAP1 RETURN JUMPDEST PUSH2 0x24B PUSH2 0x4FB JUMP JUMPDEST PUSH1 0x40 MLOAD PUSH2 0x258 SWAP2 SWAP1 PUSH2 0x700 JUMP JUMPDEST PUSH1 0x40 MLOAD DUP1 SWAP2 SUB SWAP1 RETURN JUMPDEST PUSH2 0x269 PUSH2 0x50E JUMP JUMPDEST PUSH1 0x40 MLOAD PUSH2 0x276 SWAP2 SWAP1 PUSH2 0x700 JUMP JUMPDEST PUSH1 0x40 MLOAD DUP1 SWAP2 SUB SWAP1 RETURN JUMPDEST PUSH1 0x1 PUSH1 0x0 SWAP1 SLOAD SWAP1 PUSH2 0x100 EXP SWAP1 DIV PUSH20 0xFFFFFFFFFFFFFFFFFFFFFFFFFFFFFFFFFFFFFFFF AND DUP2 JUMP JUMPDEST PUSH1 0x2 SLOAD DUP2 JUMP JUMPDEST PUSH1 0x7 PUSH1 0x1 SWAP1 SLOAD SWAP1 PUSH2 0x100 EXP SWAP1 DIV PUSH1 0xFF AND DUP2 JUMP JUMPDEST PUSH1 0x4 DUP1 SLOAD PUSH2 0x2CB SWAP1 PUSH2 0x826 JUMP JUMPDEST DUP1 PUSH1 0x1F ADD PUSH1 0x20 DUP1 SWAP2 DIV MUL PUSH1 0x20 ADD PUSH1 0x40 MLOAD SWAP1 DUP2 ADD PUSH1 0x40 MSTORE DUP1 SWAP3 SWAP2 SWAP1 DUP2 DUP2 MSTORE PUSH1 0x20 ADD DUP3 DUP1 SLOAD PUSH2 0x2F7 SWAP1 PUSH2 0x826 JUMP JUMPDEST DUP1 ISZERO PUSH2 0x344 JUMPI DUP1 PUSH1 0x1F LT PUSH2 0x319 JUMPI PUSH2 0x100 DUP1 DUP4 SLOAD DIV MUL DUP4 MSTORE SWAP2 PUSH1 0x20 ADD SWAP2 PUSH2 0x344 JUMP JUMPDEST DUP3 ADD SWAP2 SWAP1 PUSH1 0x0 MSTORE PUSH1 0x20 PUSH1 0x0 KECCAK256 SWAP1 JUMPDEST DUP2 SLOAD DUP2 MSTORE SWAP1 PUSH1 0x1 ADD SWAP1 PUSH1 0x20 ADD DUP1 DUP4 GT PUSH2 0x327 JUMPI DUP3 SWAP1 SUB PUSH1 0x1F AND DUP3 ADD SWAP2 JUMPDEST POP POP POP POP POP DUP2 JUMP JUMPDEST PUSH2 0x36D PUSH1 0x40 MLOAD DUP1 PUSH1 0x60 ADD PUSH1 0x40 MSTORE DUP1 PUSH1 0x29 DUP2 MSTORE PUSH1 0x20 ADD PUSH2 0x899 PUSH1 0x29 SWAP2 CODECOPY PUSH2 0x5BD JUMP JUMPDEST PUSH1 0x1 PUSH1 0x7 PUSH1 0x0 PUSH2 0x100 EXP DUP2 SLOAD DUP2 PUSH1 0xFF MUL NOT AND SWAP1 DUP4 ISZERO ISZERO MUL OR SWAP1 SSTORE POP JUMP JUMPDEST PUSH1 0x6 SLOAD DUP2 JUMP JUMPDEST PUSH1 0x0 PUSH1 0x7 PUSH1 0x0 SWAP1 SLOAD SWAP1 PUSH2 0x100 EXP SWAP1 DIV PUSH1 0xFF AND SWAP1 POP SWAP1 JUMP JUMPDEST PUSH1 0x5 SLOAD DUP2 JUMP JUMPDEST PUSH1 0x3 DUP1 SLOAD PUSH2 0x3BA SWAP1 PUSH2 0x826 JUMP JUMPDEST DUP1 PUSH1 0x1F ADD PUSH1 0x20 DUP1 SWAP2 DIV MUL PUSH1 0x20 ADD PUSH1 0x40 MLOAD SWAP1 DUP2 ADD PUSH1 0x40 MSTORE DUP1 SWAP3 SWAP2 SWAP1 DUP2 DUP2 MSTORE PUSH1 0x20 ADD DUP3 DUP1 SLOAD PUSH2 0x3E6 SWAP1 PUSH2 0x826 JUMP JUMPDEST DUP1 ISZERO PUSH2 0x433 JUMPI DUP1 PUSH1 0x1F LT PUSH2 0x408 JUMPI PUSH2 0x100 DUP1 DUP4 SLOAD DIV MUL DUP4 MSTORE SWAP2 PUSH1 0x20 ADD SWAP2 PUSH2 0x433 JUMP JUMPDEST DUP3 ADD SWAP2 SWAP1 PUSH1 0x0 MSTORE PUSH1 0x20 PUSH1 0x0 KECCAK256 SWAP1 JUMPDEST DUP2 SLOAD DUP2 MSTORE SWAP1 PUSH1 0x1 ADD SWAP1 PUSH1 0x20 ADD DUP1 DUP4 GT PUSH2 0x416 JUMPI DUP3 SWAP1 SUB PUSH1 0x1F AND DUP3 ADD SWAP2 JUMPDEST POP POP POP POP POP DUP2 JUMP JUMPDEST PUSH1 0x0 DUP1 SLOAD SWAP1 PUSH2 0x100 EXP SWAP1 DIV PUSH20 0xFFFFFFFFFFFFFFFFFFFFFFFFFFFFFFFFFFFFFFFF AND DUP2 JUMP JUMPDEST PUSH1 0x0 PUSH1 0x5 SLOAD SWAP1 POP SWAP1 JUMP JUMPDEST PUSH1 0x60 PUSH1 0x4 DUP1 SLOAD PUSH2 0x478 SWAP1 PUSH2 0x826 JUMP JUMPDEST DUP1 PUSH1 0x1F ADD PUSH1 0x20 DUP1 SWAP2 DIV MUL PUSH1 0x20 ADD PUSH1 0x40 MLOAD SWAP1 DUP2 ADD PUSH1 0x40 MSTORE DUP1 SWAP3 SWAP2 SWAP1 DUP2 DUP2 MSTORE PUSH1 0x20 ADD DUP3 DUP1 SLOAD PUSH2 0x4A4 SWAP1 PUSH2 0x826 JUMP JUMPDEST DUP1 ISZERO PUSH2 0x4F1 JUMPI DUP1 PUSH1 0x1F LT PUSH2 0x4C6 JUMPI PUSH2 0x100 DUP1 DUP4 SLOAD DIV MUL DUP4 MSTORE SWAP2 PUSH1 0x20 ADD SWAP2 PUSH2 0x4F1 JUMP JUMPDEST DUP3 ADD SWAP2 SWAP1 PUSH1 0x0 MSTORE PUSH1 0x20 PUSH1 0x0 KECCAK256 SWAP1 JUMPDEST DUP2 SLOAD DUP2 MSTORE SWAP1 PUSH1 0x1 ADD SWAP1 PUSH1 0x20 ADD DUP1 DUP4 GT PUSH2 0x4D4 JUMPI DUP3 SWAP1 SUB PUSH1 0x1F AND DUP3 ADD SWAP2 JUMPDEST POP POP POP POP POP SWAP1 POP SWAP1 JUMP JUMPDEST PUSH1 0x7 PUSH1 0x0 SWAP1 SLOAD SWAP1 PUSH2 0x100 EXP SWAP1 DIV PUSH1 0xFF AND DUP2 JUMP JUMPDEST PUSH1 0x7 PUSH1 0x2 SWAP1 SLOAD SWAP1 PUSH2 0x100 EXP SWAP1 DIV PUSH1 0xFF AND DUP2 JUMP JUMPDEST PUSH2 0x5B9 DUP3 DUP3 PUSH1 0x40 MLOAD PUSH1 0x24 ADD PUSH2 0x537 SWAP3 SWAP2 SWAP1 PUSH2 0x73D JUMP JUMPDEST PUSH1 0x40 MLOAD PUSH1 0x20 DUP2 DUP4 SUB SUB DUP2 MSTORE SWAP1 PUSH1 0x40 MSTORE PUSH32 0x4B5C427700000000000000000000000000000000000000000000000000000000 PUSH28 0xFFFFFFFFFFFFFFFFFFFFFFFFFFFFFFFFFFFFFFFFFFFFFFFFFFFFFFFF NOT AND PUSH1 0x20 DUP3 ADD DUP1 MLOAD PUSH28 0xFFFFFFFFFFFFFFFFFFFFFFFFFFFFFFFFFFFFFFFFFFFFFFFFFFFFFFFF DUP4 DUP2 DUP4 AND OR DUP4 MSTORE POP POP POP POP PUSH2 0x656 JUMP JUMPDEST POP POP JUMP JUMPDEST PUSH2 0x653 DUP2 PUSH1 0x40 MLOAD PUSH1 0x24 ADD PUSH2 0x5D1 SWAP2 SWAP1 PUSH2 0x71B JUMP JUMPDEST PUSH1 0x40 MLOAD PUSH1 0x20 DUP2 DUP4 SUB SUB DUP2 MSTORE SWAP1 PUSH1 0x40 MSTORE PUSH32 0x41304FAC00000000000000000000000000000000000000000000000000000000 PUSH28 0xFFFFFFFFFFFFFFFFFFFFFFFFFFFFFFFFFFFFFFFFFFFFFFFFFFFFFFFF NOT AND PUSH1 0x20 DUP3 ADD DUP1 MLOAD PUSH28 0xFFFFFFFFFFFFFFFFFFFFFFFFFFFFFFFFFFFFFFFFFFFFFFFFFFFFFFFF DUP4 DUP2 DUP4 AND OR DUP4 MSTORE POP POP POP POP PUSH2 0x656 JUMP JUMPDEST POP JUMP JUMPDEST PUSH1 0x0 DUP2 MLOAD SWAP1 POP PUSH1 0x0 PUSH11 0x636F6E736F6C652E6C6F67 SWAP1 POP PUSH1 0x20 DUP4 ADD PUSH1 0x0 DUP1 DUP5 DUP4 DUP6 GAS STATICCALL POP POP POP POP POP JUMP JUMPDEST PUSH2 0x688 DUP2 PUSH2 0x7AB JUMP JUMPDEST DUP3 MSTORE POP POP JUMP JUMPDEST PUSH2 0x697 DUP2 PUSH2 0x7BD JUMP JUMPDEST DUP3 MSTORE POP POP JUMP JUMPDEST PUSH1 0x0 PUSH2 0x6A8 DUP3 PUSH2 0x78F JUMP JUMPDEST PUSH2 0x6B2 DUP2 DUP6 PUSH2 0x79A JUMP JUMPDEST SWAP4 POP PUSH2 0x6C2 DUP2 DUP6 PUSH1 0x20 DUP7 ADD PUSH2 0x7F3 JUMP JUMPDEST PUSH2 0x6CB DUP2 PUSH2 0x887 JUMP JUMPDEST DUP5 ADD SWAP2 POP POP SWAP3 SWAP2 POP POP JUMP JUMPDEST PUSH2 0x6DF DUP2 PUSH2 0x7E9 JUMP JUMPDEST DUP3 MSTORE POP POP JUMP JUMPDEST PUSH1 0x0 PUSH1 0x20 DUP3 ADD SWAP1 POP PUSH2 0x6FA PUSH1 0x0 DUP4 ADD DUP5 PUSH2 0x67F JUMP JUMPDEST SWAP3 SWAP2 POP POP JUMP JUMPDEST PUSH1 0x0 PUSH1 0x20 DUP3 ADD SWAP1 POP PUSH2 0x715 PUSH1 0x0 DUP4 ADD DUP5 PUSH2 0x68E JUMP JUMPDEST SWAP3 SWAP2 POP POP JUMP JUMPDEST PUSH1 0x0 PUSH1 0x20 DUP3 ADD SWAP1 POP DUP2 DUP2 SUB PUSH1 0x0 DUP4 ADD MSTORE PUSH2 0x735 DUP2 DUP5 PUSH2 0x69D JUMP JUMPDEST SWAP1 POP SWAP3 SWAP2 POP POP JUMP JUMPDEST PUSH1 0x0 PUSH1 0x40 DUP3 ADD SWAP1 POP DUP2 DUP2 SUB PUSH1 0x0 DUP4 ADD MSTORE PUSH2 0x757 DUP2 DUP6 PUSH2 0x69D JUMP JUMPDEST SWAP1 POP DUP2 DUP2 SUB PUSH1 0x20 DUP4 ADD MSTORE PUSH2 0x76B DUP2 DUP5 PUSH2 0x69D JUMP JUMPDEST SWAP1 POP SWAP4 SWAP3 POP POP POP JUMP JUMPDEST PUSH1 0x0 PUSH1 0x20 DUP3 ADD SWAP1 POP PUSH2 0x789 PUSH1 0x0 DUP4 ADD DUP5 PUSH2 0x6D6 JUMP JUMPDEST SWAP3 SWAP2 POP POP JUMP JUMPDEST PUSH1 0x0 DUP2 MLOAD SWAP1 POP SWAP2 SWAP1 POP JUMP JUMPDEST PUSH1 0x0 DUP3 DUP3 MSTORE PUSH1 0x20 DUP3 ADD SWAP1 POP SWAP3 SWAP2 POP POP JUMP JUMPDEST PUSH1 0x0 PUSH2 0x7B6 DUP3 PUSH2 0x7C9 JUMP JUMPDEST SWAP1 POP SWAP2 SWAP1 POP JUMP JUMPDEST PUSH1 0x0 DUP2 ISZERO ISZERO SWAP1 POP SWAP2 SWAP1 POP JUMP JUMPDEST PUSH1 0x0 PUSH20 0xFFFFFFFFFFFFFFFFFFFFFFFFFFFFFFFFFFFFFFFF DUP3 AND SWAP1 POP SWAP2 SWAP1 POP JUMP JUMPDEST PUSH1 0x0 DUP2 SWAP1 POP SWAP2 SWAP1 POP JUMP JUMPDEST PUSH1 0x0 JUMPDEST DUP4 DUP2 LT ISZERO PUSH2 0x811 JUMPI DUP1 DUP3 ADD MLOAD DUP2 DUP5 ADD MSTORE PUSH1 0x20 DUP2 ADD SWAP1 POP PUSH2 0x7F6 JUMP JUMPDEST DUP4 DUP2 GT ISZERO PUSH2 0x820 JUMPI PUSH1 0x0 DUP5 DUP5 ADD MSTORE JUMPDEST POP POP POP POP JUMP JUMPDEST PUSH1 0x0 PUSH1 0x2 DUP3 DIV SWAP1 POP PUSH1 0x1 DUP3 AND DUP1 PUSH2 0x83E JUMPI PUSH1 0x7F DUP3 AND SWAP2 POP JUMPDEST PUSH1 0x20 DUP3 LT DUP2 EQ ISZERO PUSH2 0x852 JUMPI PUSH2 0x851 PUSH2 0x858 JUMP JUMPDEST JUMPDEST POP SWAP2 SWAP1 POP JUMP JUMPDEST PUSH32 0x4E487B7100000000000000000000000000000000000000000000000000000000 PUSH1 0x0 MSTORE PUSH1 0x22 PUSH1 0x4 MSTORE PUSH1 0x24 PUSH1 0x0 REVERT JUMPDEST PUSH1 0x0 PUSH1 0x1F NOT PUSH1 0x1F DUP4 ADD AND SWAP1 POP SWAP2 SWAP1 POP JUMP INVALID 0x4D PUSH2 0x6465 KECCAK256 PUSH10 0x7420696E746F20746865 KECCAK256 PUSH23 0x65726966795472656520747265652066756E6374696F6E LOG2 PUSH5 0x6970667358 0x22 SLT KECCAK256 CHAINID CHAINID 0xB9 PUSH17 0xF03CE3DB50FA77352B470311044D1F8E6C AND 0xC1 0x29 SWAP15 SDIV 0xBD LT 0xCB 0x2F EXP 0xC2 PUSH5 0x736F6C6343 STOP ADDMOD SMOD STOP CALLER PUSH1 0x80 PUSH1 0x40 MSTORE CALLVALUE DUP1 ISZERO PUSH3 0x11 JUMPI PUSH1 0x0 DUP1 REVERT JUMPDEST POP PUSH1 0x40 MLOAD PUSH3 0xD5D CODESIZE SUB DUP1 PUSH3 0xD5D DUP4 CODECOPY DUP2 DUP2 ADD PUSH1 0x40 MSTORE DUP2 ADD SWAP1 PUSH3 0x37 SWAP2 SWAP1 PUSH3 0x38C JUMP JUMPDEST CALLER PUSH1 0x0 DUP1 PUSH2 0x100 EXP DUP2 SLOAD DUP2 PUSH20 0xFFFFFFFFFFFFFFFFFFFFFFFFFFFFFFFFFFFFFFFF MUL NOT AND SWAP1 DUP4 PUSH20 0xFFFFFFFFFFFFFFFFFFFFFFFFFFFFFFFFFFFFFFFF AND MUL OR SWAP1 SSTORE POP DUP1 PUSH1 0x4 SWAP1 DUP1 MLOAD SWAP1 PUSH1 0x20 ADD SWAP1 PUSH3 0x8F SWAP3 SWAP2 SWAP1 PUSH3 0x25E JUMP JUMPDEST POP DUP2 PUSH1 0x3 SWAP1 DUP1 MLOAD SWAP1 PUSH1 0x20 ADD SWAP1 PUSH3 0xA8 SWAP3 SWAP2 SWAP1 PUSH3 0x25E JUMP JUMPDEST POP PUSH3 0x187 PUSH1 0x40 MLOAD DUP1 PUSH1 0x40 ADD PUSH1 0x40 MSTORE DUP1 PUSH1 0x14 DUP2 MSTORE PUSH1 0x20 ADD PUSH32 0x74726565206C6F63206F75747075742069733A20000000000000000000000000 DUP2 MSTORE POP PUSH1 0x4 DUP1 SLOAD PUSH3 0xF2 SWAP1 PUSH3 0x53E JUMP JUMPDEST DUP1 PUSH1 0x1F ADD PUSH1 0x20 DUP1 SWAP2 DIV MUL PUSH1 0x20 ADD PUSH1 0x40 MLOAD SWAP1 DUP2 ADD PUSH1 0x40 MSTORE DUP1 SWAP3 SWAP2 SWAP1 DUP2 DUP2 MSTORE PUSH1 0x20 ADD DUP3 DUP1 SLOAD PUSH3 0x120 SWAP1 PUSH3 0x53E JUMP JUMPDEST DUP1 ISZERO PUSH3 0x171 JUMPI DUP1 PUSH1 0x1F LT PUSH3 0x145 JUMPI PUSH2 0x100 DUP1 DUP4 SLOAD DIV MUL DUP4 MSTORE SWAP2 PUSH1 0x20 ADD SWAP2 PUSH3 0x171 JUMP JUMPDEST DUP3 ADD SWAP2 SWAP1 PUSH1 0x0 MSTORE PUSH1 0x20 PUSH1 0x0 KECCAK256 SWAP1 JUMPDEST DUP2 SLOAD DUP2 MSTORE SWAP1 PUSH1 0x1 ADD SWAP1 PUSH1 0x20 ADD DUP1 DUP4 GT PUSH3 0x153 JUMPI DUP3 SWAP1 SUB PUSH1 0x1F AND DUP3 ADD SWAP2 JUMPDEST POP POP POP POP POP PUSH3 0x18F PUSH1 0x20 SHL PUSH3 0x40C OR PUSH1 0x20 SHR JUMP JUMPDEST POP POP PUSH3 0x62D JUMP JUMPDEST PUSH3 0x231 DUP3 DUP3 PUSH1 0x40 MLOAD PUSH1 0x24 ADD PUSH3 0x1A8 SWAP3 SWAP2 SWAP1 PUSH3 0x452 JUMP JUMPDEST PUSH1 0x40 MLOAD PUSH1 0x20 DUP2 DUP4 SUB SUB DUP2 MSTORE SWAP1 PUSH1 0x40 MSTORE PUSH32 0x4B5C427700000000000000000000000000000000000000000000000000000000 PUSH28 0xFFFFFFFFFFFFFFFFFFFFFFFFFFFFFFFFFFFFFFFFFFFFFFFFFFFFFFFF NOT AND PUSH1 0x20 DUP3 ADD DUP1 MLOAD PUSH28 0xFFFFFFFFFFFFFFFFFFFFFFFFFFFFFFFFFFFFFFFFFFFFFFFFFFFFFFFF DUP4 DUP2 DUP4 AND OR DUP4 MSTORE POP POP POP POP PUSH3 0x235 PUSH1 0x20 SHL PUSH1 0x20 SHR JUMP JUMPDEST POP POP JUMP JUMPDEST PUSH1 0x0 DUP2 MLOAD SWAP1 POP PUSH1 0x0 PUSH11 0x636F6E736F6C652E6C6F67 SWAP1 POP PUSH1 0x20 DUP4 ADD PUSH1 0x0 DUP1 DUP5 DUP4 DUP6 GAS STATICCALL POP POP POP POP POP JUMP JUMPDEST DUP3 DUP1 SLOAD PUSH3 0x26C SWAP1 PUSH3 0x53E JUMP JUMPDEST SWAP1 PUSH1 0x0 MSTORE PUSH1 0x20 PUSH1 0x0 KECCAK256 SWAP1 PUSH1 0x1F ADD PUSH1 0x20 SWAP1 DIV DUP2 ADD SWAP3 DUP3 PUSH3 0x290 JUMPI PUSH1 0x0 DUP6 SSTORE PUSH3 0x2DC JUMP JUMPDEST DUP3 PUSH1 0x1F LT PUSH3 0x2AB JUMPI DUP1 MLOAD PUSH1 0xFF NOT AND DUP4 DUP1 ADD OR DUP6 SSTORE PUSH3 0x2DC JUMP JUMPDEST DUP3 DUP1 ADD PUSH1 0x1 ADD DUP6 SSTORE DUP3 ISZERO PUSH3 0x2DC JUMPI SWAP2 DUP3 ADD JUMPDEST DUP3 DUP2 GT ISZERO PUSH3 0x2DB JUMPI DUP3 MLOAD DUP3 SSTORE SWAP2 PUSH1 0x20 ADD SWAP2 SWAP1 PUSH1 0x1 ADD SWAP1 PUSH3 0x2BE JUMP JUMPDEST JUMPDEST POP SWAP1 POP PUSH3 0x2EB SWAP2 SWAP1 PUSH3 0x2EF JUMP JUMPDEST POP SWAP1 JUMP JUMPDEST JUMPDEST DUP1 DUP3 GT ISZERO PUSH3 0x30A JUMPI PUSH1 0x0 DUP2 PUSH1 0x0 SWAP1 SSTORE POP PUSH1 0x1 ADD PUSH3 0x2F0 JUMP JUMPDEST POP SWAP1 JUMP JUMPDEST PUSH1 0x0 PUSH3 0x325 PUSH3 0x31F DUP5 PUSH3 0x4B6 JUMP JUMPDEST PUSH3 0x48D JUMP JUMPDEST SWAP1 POP DUP3 DUP2 MSTORE PUSH1 0x20 DUP2 ADD DUP5 DUP5 DUP5 ADD GT ISZERO PUSH3 0x344 JUMPI PUSH3 0x343 PUSH3 0x60D JUMP JUMPDEST JUMPDEST PUSH3 0x351 DUP5 DUP3 DUP6 PUSH3 0x508 JUMP JUMPDEST POP SWAP4 SWAP3 POP POP POP JUMP JUMPDEST PUSH1 0x0 DUP3 PUSH1 0x1F DUP4 ADD SLT PUSH3 0x371 JUMPI PUSH3 0x370 PUSH3 0x608 JUMP JUMPDEST JUMPDEST DUP2 MLOAD PUSH3 0x383 DUP5 DUP3 PUSH1 0x20 DUP7 ADD PUSH3 0x30E JUMP JUMPDEST SWAP2 POP POP SWAP3 SWAP2 POP POP JUMP JUMPDEST PUSH1 0x0 DUP1 PUSH1 0x40 DUP4 DUP6 SUB SLT ISZERO PUSH3 0x3A6 JUMPI PUSH3 0x3A5 PUSH3 0x617 JUMP JUMPDEST JUMPDEST PUSH1 0x0 DUP4 ADD MLOAD PUSH8 0xFFFFFFFFFFFFFFFF DUP2 GT ISZERO PUSH3 0x3C7 JUMPI PUSH3 0x3C6 PUSH3 0x612 JUMP JUMPDEST JUMPDEST PUSH3 0x3D5 DUP6 DUP3 DUP7 ADD PUSH3 0x359 JUMP JUMPDEST SWAP3 POP POP PUSH1 0x20 DUP4 ADD MLOAD PUSH8 0xFFFFFFFFFFFFFFFF DUP2 GT ISZERO PUSH3 0x3F9 JUMPI PUSH3 0x3F8 PUSH3 0x612 JUMP JUMPDEST JUMPDEST PUSH3 0x407 DUP6 DUP3 DUP7 ADD PUSH3 0x359 JUMP JUMPDEST SWAP2 POP POP SWAP3 POP SWAP3 SWAP1 POP JUMP JUMPDEST PUSH1 0x0 PUSH3 0x41E DUP3 PUSH3 0x4EC JUMP JUMPDEST PUSH3 0x42A DUP2 DUP6 PUSH3 0x4F7 JUMP JUMPDEST SWAP4 POP PUSH3 0x43C DUP2 DUP6 PUSH1 0x20 DUP7 ADD PUSH3 0x508 JUMP JUMPDEST PUSH3 0x447 DUP2 PUSH3 0x61C JUMP JUMPDEST DUP5 ADD SWAP2 POP POP SWAP3 SWAP2 POP POP JUMP JUMPDEST PUSH1 0x0 PUSH1 0x40 DUP3 ADD SWAP1 POP DUP2 DUP2 SUB PUSH1 0x0 DUP4 ADD MSTORE PUSH3 0x46E DUP2 DUP6 PUSH3 0x411 JUMP JUMPDEST SWAP1 POP DUP2 DUP2 SUB PUSH1 0x20 DUP4 ADD MSTORE PUSH3 0x484 DUP2 DUP5 PUSH3 0x411 JUMP JUMPDEST SWAP1 POP SWAP4 SWAP3 POP POP POP JUMP JUMPDEST PUSH1 0x0 PUSH3 0x499 PUSH3 0x4AC JUMP JUMPDEST SWAP1 POP PUSH3 0x4A7 DUP3 DUP3 PUSH3 0x574 JUMP JUMPDEST SWAP2 SWAP1 POP JUMP JUMPDEST PUSH1 0x0 PUSH1 0x40 MLOAD SWAP1 POP SWAP1 JUMP JUMPDEST PUSH1 0x0 PUSH8 0xFFFFFFFFFFFFFFFF DUP3 GT ISZERO PUSH3 0x4D4 JUMPI PUSH3 0x4D3 PUSH3 0x5D9 JUMP JUMPDEST JUMPDEST PUSH3 0x4DF DUP3 PUSH3 0x61C JUMP JUMPDEST SWAP1 POP PUSH1 0x20 DUP2 ADD SWAP1 POP SWAP2 SWAP1 POP JUMP JUMPDEST PUSH1 0x0 DUP2 MLOAD SWAP1 POP SWAP2 SWAP1 POP JUMP JUMPDEST PUSH1 0x0 DUP3 DUP3 MSTORE PUSH1 0x20 DUP3 ADD SWAP1 POP SWAP3 SWAP2 POP POP JUMP JUMPDEST PUSH1 0x0 JUMPDEST DUP4 DUP2 LT ISZERO PUSH3 0x528 JUMPI DUP1 DUP3 ADD MLOAD DUP2 DUP5 ADD MSTORE PUSH1 0x20 DUP2 ADD SWAP1 POP PUSH3 0x50B JUMP JUMPDEST DUP4 DUP2 GT ISZERO PUSH3 0x538 JUMPI PUSH1 0x0 DUP5 DUP5 ADD MSTORE JUMPDEST POP POP POP POP JUMP JUMPDEST PUSH1 0x0 PUSH1 0x2 DUP3 DIV SWAP1 POP PUSH1 0x1 DUP3 AND DUP1 PUSH3 0x557 JUMPI PUSH1 0x7F DUP3 AND SWAP2 POP JUMPDEST PUSH1 0x20 DUP3 LT DUP2 EQ ISZERO PUSH3 0x56E JUMPI PUSH3 0x56D PUSH3 0x5AA JUMP JUMPDEST JUMPDEST POP SWAP2 SWAP1 POP JUMP JUMPDEST PUSH3 0x57F DUP3 PUSH3 0x61C JUMP JUMPDEST DUP2 ADD DUP2 DUP2 LT PUSH8 0xFFFFFFFFFFFFFFFF DUP3 GT OR ISZERO PUSH3 0x5A1 JUMPI PUSH3 0x5A0 PUSH3 0x5D9 JUMP JUMPDEST JUMPDEST DUP1 PUSH1 0x40 MSTORE POP POP POP JUMP JUMPDEST PUSH32 0x4E487B7100000000000000000000000000000000000000000000000000000000 PUSH1 0x0 MSTORE PUSH1 0x22 PUSH1 0x4 MSTORE PUSH1 0x24 PUSH1 0x0 REVERT JUMPDEST PUSH32 0x4E487B7100000000000000000000000000000000000000000000000000000000 PUSH1 0x0 MSTORE PUSH1 0x41 PUSH1 0x4 MSTORE PUSH1 0x24 PUSH1 0x0 REVERT JUMPDEST PUSH1 0x0 DUP1 REVERT JUMPDEST PUSH1 0x0 DUP1 REVERT JUMPDEST PUSH1 0x0 DUP1 REVERT JUMPDEST PUSH1 0x0 DUP1 REVERT JUMPDEST PUSH1 0x0 PUSH1 0x1F NOT PUSH1 0x1F DUP4 ADD AND SWAP1 POP SWAP2 SWAP1 POP JUMP JUMPDEST PUSH2 0x720 DUP1 PUSH3 0x63D PUSH1 0x0 CODECOPY PUSH1 0x0 RETURN INVALID PUSH1 0x80 PUSH1 0x40 MSTORE CALLVALUE DUP1 ISZERO PUSH2 0x10 JUMPI PUSH1 0x0 DUP1 REVERT JUMPDEST POP PUSH1 0x4 CALLDATASIZE LT PUSH2 0x9E JUMPI PUSH1 0x0 CALLDATALOAD PUSH1 0xE0 SHR DUP1 PUSH4 0x876924A2 GT PUSH2 0x66 JUMPI DUP1 PUSH4 0x876924A2 EQ PUSH2 0x139 JUMPI DUP1 PUSH4 0x8DA5CB5B EQ PUSH2 0x157 JUMPI DUP1 PUSH4 0xB294EF38 EQ PUSH2 0x175 JUMPI DUP1 PUSH4 0xBBB82D89 EQ PUSH2 0x193 JUMPI DUP1 PUSH4 0xF51F96DD EQ PUSH2 0x1B1 JUMPI PUSH2 0x9E JUMP JUMPDEST DUP1 PUSH4 0x2D05D3F EQ PUSH2 0xA3 JUMPI DUP1 PUSH4 0x1C3CF869 EQ PUSH2 0xC1 JUMPI DUP1 PUSH4 0x466CCAC0 EQ PUSH2 0xDF JUMPI DUP1 PUSH4 0x516F279E EQ PUSH2 0xFD JUMPI DUP1 PUSH4 0x619B092D EQ PUSH2 0x11B JUMPI JUMPDEST PUSH1 0x0 DUP1 REVERT JUMPDEST PUSH2 0xAB PUSH2 0x1CF JUMP JUMPDEST PUSH1 0x40 MLOAD PUSH2 0xB8 SWAP2 SWAP1 PUSH2 0x537 JUMP JUMPDEST PUSH1 0x40 MLOAD DUP1 SWAP2 SUB SWAP1 RETURN JUMPDEST PUSH2 0xC9 PUSH2 0x1F5 JUMP JUMPDEST PUSH1 0x40 MLOAD PUSH2 0xD6 SWAP2 SWAP1 PUSH2 0x5C6 JUMP JUMPDEST PUSH1 0x40 MLOAD DUP1 SWAP2 SUB SWAP1 RETURN JUMPDEST PUSH2 0xE7 PUSH2 0x1FB JUMP JUMPDEST PUSH1 0x40 MLOAD PUSH2 0xF4 SWAP2 SWAP1 PUSH2 0x552 JUMP JUMPDEST PUSH1 0x40 MLOAD DUP1 SWAP2 SUB SWAP1 RETURN JUMPDEST PUSH2 0x105 PUSH2 0x20E JUMP JUMPDEST PUSH1 0x40 MLOAD PUSH2 0x112 SWAP2 SWAP1 PUSH2 0x56D JUMP JUMPDEST PUSH1 0x40 MLOAD DUP1 SWAP2 SUB SWAP1 RETURN JUMPDEST PUSH2 0x123 PUSH2 0x29C JUMP JUMPDEST PUSH1 0x40 MLOAD PUSH2 0x130 SWAP2 SWAP1 PUSH2 0x5C6 JUMP JUMPDEST PUSH1 0x40 MLOAD DUP1 SWAP2 SUB SWAP1 RETURN JUMPDEST PUSH2 0x141 PUSH2 0x2A2 JUMP JUMPDEST PUSH1 0x40 MLOAD PUSH2 0x14E SWAP2 SWAP1 PUSH2 0x56D JUMP JUMPDEST PUSH1 0x40 MLOAD DUP1 SWAP2 SUB SWAP1 RETURN JUMPDEST PUSH2 0x15F PUSH2 0x330 JUMP JUMPDEST PUSH1 0x40 MLOAD PUSH2 0x16C SWAP2 SWAP1 PUSH2 0x537 JUMP JUMPDEST PUSH1 0x40 MLOAD DUP1 SWAP2 SUB SWAP1 RETURN JUMPDEST PUSH2 0x17D PUSH2 0x354 JUMP JUMPDEST PUSH1 0x40 MLOAD PUSH2 0x18A SWAP2 SWAP1 PUSH2 0x56D JUMP JUMPDEST PUSH1 0x40 MLOAD DUP1 SWAP2 SUB SWAP1 RETURN JUMPDEST PUSH2 0x19B PUSH2 0x3E6 JUMP JUMPDEST PUSH1 0x40 MLOAD PUSH2 0x1A8 SWAP2 SWAP1 PUSH2 0x552 JUMP JUMPDEST PUSH1 0x40 MLOAD DUP1 SWAP2 SUB SWAP1 RETURN JUMPDEST PUSH2 0x1B9 PUSH2 0x3F9 JUMP JUMPDEST PUSH1 0x40 MLOAD PUSH2 0x1C6 SWAP2 SWAP1 PUSH2 0x552 JUMP JUMPDEST PUSH1 0x40 MLOAD DUP1 SWAP2 SUB SWAP1 RETURN JUMPDEST PUSH1 0x1 PUSH1 0x0 SWAP1 SLOAD SWAP1 PUSH2 0x100 EXP SWAP1 DIV PUSH20 0xFFFFFFFFFFFFFFFFFFFFFFFFFFFFFFFFFFFFFFFF AND DUP2 JUMP JUMPDEST PUSH1 0x2 SLOAD DUP2 JUMP JUMPDEST PUSH1 0x6 PUSH1 0x1 SWAP1 SLOAD SWAP1 PUSH2 0x100 EXP SWAP1 DIV PUSH1 0xFF AND DUP2 JUMP JUMPDEST PUSH1 0x4 DUP1 SLOAD PUSH2 0x21B SWAP1 PUSH2 0x678 JUMP JUMPDEST DUP1 PUSH1 0x1F ADD PUSH1 0x20 DUP1 SWAP2 DIV MUL PUSH1 0x20 ADD PUSH1 0x40 MLOAD SWAP1 DUP2 ADD PUSH1 0x40 MSTORE DUP1 SWAP3 SWAP2 SWAP1 DUP2 DUP2 MSTORE PUSH1 0x20 ADD DUP3 DUP1 SLOAD PUSH2 0x247 SWAP1 PUSH2 0x678 JUMP JUMPDEST DUP1 ISZERO PUSH2 0x294 JUMPI DUP1 PUSH1 0x1F LT PUSH2 0x269 JUMPI PUSH2 0x100 DUP1 DUP4 SLOAD DIV MUL DUP4 MSTORE SWAP2 PUSH1 0x20 ADD SWAP2 PUSH2 0x294 JUMP JUMPDEST DUP3 ADD SWAP2 SWAP1 PUSH1 0x0 MSTORE PUSH1 0x20 PUSH1 0x0 KECCAK256 SWAP1 JUMPDEST DUP2 SLOAD DUP2 MSTORE SWAP1 PUSH1 0x1 ADD SWAP1 PUSH1 0x20 ADD DUP1 DUP4 GT PUSH2 0x277 JUMPI DUP3 SWAP1 SUB PUSH1 0x1F AND DUP3 ADD SWAP2 JUMPDEST POP POP POP POP POP DUP2 JUMP JUMPDEST PUSH1 0x5 SLOAD DUP2 JUMP JUMPDEST PUSH1 0x3 DUP1 SLOAD PUSH2 0x2AF SWAP1 PUSH2 0x678 JUMP JUMPDEST DUP1 PUSH1 0x1F ADD PUSH1 0x20 DUP1 SWAP2 DIV MUL PUSH1 0x20 ADD PUSH1 0x40 MLOAD SWAP1 DUP2 ADD PUSH1 0x40 MSTORE DUP1 SWAP3 SWAP2 SWAP1 DUP2 DUP2 MSTORE PUSH1 0x20 ADD DUP3 DUP1 SLOAD PUSH2 0x2DB SWAP1 PUSH2 0x678 JUMP JUMPDEST DUP1 ISZERO PUSH2 0x328 JUMPI DUP1 PUSH1 0x1F LT PUSH2 0x2FD JUMPI PUSH2 0x100 DUP1 DUP4 SLOAD DIV MUL DUP4 MSTORE SWAP2 PUSH1 0x20 ADD SWAP2 PUSH2 0x328 JUMP JUMPDEST DUP3 ADD SWAP2 SWAP1 PUSH1 0x0 MSTORE PUSH1 0x20 PUSH1 0x0 KECCAK256 SWAP1 JUMPDEST DUP2 SLOAD DUP2 MSTORE SWAP1 PUSH1 0x1 ADD SWAP1 PUSH1 0x20 ADD DUP1 DUP4 GT PUSH2 0x30B JUMPI DUP3 SWAP1 SUB PUSH1 0x1F AND DUP3 ADD SWAP2 JUMPDEST POP POP POP POP POP DUP2 JUMP JUMPDEST PUSH1 0x0 DUP1 SLOAD SWAP1 PUSH2 0x100 EXP SWAP1 DIV PUSH20 0xFFFFFFFFFFFFFFFFFFFFFFFFFFFFFFFFFFFFFFFF AND DUP2 JUMP JUMPDEST PUSH1 0x60 PUSH1 0x4 DUP1 SLOAD PUSH2 0x363 SWAP1 PUSH2 0x678 JUMP JUMPDEST DUP1 PUSH1 0x1F ADD PUSH1 0x20 DUP1 SWAP2 DIV MUL PUSH1 0x20 ADD PUSH1 0x40 MLOAD SWAP1 DUP2 ADD PUSH1 0x40 MSTORE DUP1 SWAP3 SWAP2 SWAP1 DUP2 DUP2 MSTORE PUSH1 0x20 ADD DUP3 DUP1 SLOAD PUSH2 0x38F SWAP1 PUSH2 0x678 JUMP JUMPDEST DUP1 ISZERO PUSH2 0x3DC JUMPI DUP1 PUSH1 0x1F LT PUSH2 0x3B1 JUMPI PUSH2 0x100 DUP1 DUP4 SLOAD DIV MUL DUP4 MSTORE SWAP2 PUSH1 0x20 ADD SWAP2 PUSH2 0x3DC JUMP JUMPDEST DUP3 ADD SWAP2 SWAP1 PUSH1 0x0 MSTORE PUSH1 0x20 PUSH1 0x0 KECCAK256 SWAP1 JUMPDEST DUP2 SLOAD DUP2 MSTORE SWAP1 PUSH1 0x1 ADD SWAP1 PUSH1 0x20 ADD DUP1 DUP4 GT PUSH2 0x3BF JUMPI DUP3 SWAP1 SUB PUSH1 0x1F AND DUP3 ADD SWAP2 JUMPDEST POP POP POP POP POP SWAP1 POP SWAP1 JUMP JUMPDEST PUSH1 0x6 PUSH1 0x0 SWAP1 SLOAD SWAP1 PUSH2 0x100 EXP SWAP1 DIV PUSH1 0xFF AND DUP2 JUMP JUMPDEST PUSH1 0x6 PUSH1 0x2 SWAP1 SLOAD SWAP1 PUSH2 0x100 EXP SWAP1 DIV PUSH1 0xFF AND DUP2 JUMP JUMPDEST PUSH2 0x4A4 DUP3 DUP3 PUSH1 0x40 MLOAD PUSH1 0x24 ADD PUSH2 0x422 SWAP3 SWAP2 SWAP1 PUSH2 0x58F JUMP JUMPDEST PUSH1 0x40 MLOAD PUSH1 0x20 DUP2 DUP4 SUB SUB DUP2 MSTORE SWAP1 PUSH1 0x40 MSTORE PUSH32 0x4B5C427700000000000000000000000000000000000000000000000000000000 PUSH28 0xFFFFFFFFFFFFFFFFFFFFFFFFFFFFFFFFFFFFFFFFFFFFFFFFFFFFFFFF NOT AND PUSH1 0x20 DUP3 ADD DUP1 MLOAD PUSH28 0xFFFFFFFFFFFFFFFFFFFFFFFFFFFFFFFFFFFFFFFFFFFFFFFFFFFFFFFF DUP4 DUP2 DUP4 AND OR DUP4 MSTORE POP POP POP POP PUSH2 0x4A8 JUMP JUMPDEST POP POP JUMP JUMPDEST PUSH1 0x0 DUP2 MLOAD SWAP1 POP PUSH1 0x0 PUSH11 0x636F6E736F6C652E6C6F67 SWAP1 POP PUSH1 0x20 DUP4 ADD PUSH1 0x0 DUP1 DUP5 DUP4 DUP6 GAS STATICCALL POP POP POP POP POP JUMP JUMPDEST PUSH2 0x4DA DUP2 PUSH2 0x5FD JUMP JUMPDEST DUP3 MSTORE POP POP JUMP JUMPDEST PUSH2 0x4E9 DUP2 PUSH2 0x60F JUMP JUMPDEST DUP3 MSTORE POP POP JUMP JUMPDEST PUSH1 0x0 PUSH2 0x4FA DUP3 PUSH2 0x5E1 JUMP JUMPDEST PUSH2 0x504 DUP2 DUP6 PUSH2 0x5EC JUMP JUMPDEST SWAP4 POP PUSH2 0x514 DUP2 DUP6 PUSH1 0x20 DUP7 ADD PUSH2 0x645 JUMP JUMPDEST PUSH2 0x51D DUP2 PUSH2 0x6D9 JUMP JUMPDEST DUP5 ADD SWAP2 POP POP SWAP3 SWAP2 POP POP JUMP JUMPDEST PUSH2 0x531 DUP2 PUSH2 0x63B JUMP JUMPDEST DUP3 MSTORE POP POP JUMP JUMPDEST PUSH1 0x0 PUSH1 0x20 DUP3 ADD SWAP1 POP PUSH2 0x54C PUSH1 0x0 DUP4 ADD DUP5 PUSH2 0x4D1 JUMP JUMPDEST SWAP3 SWAP2 POP POP JUMP JUMPDEST PUSH1 0x0 PUSH1 0x20 DUP3 ADD SWAP1 POP PUSH2 0x567 PUSH1 0x0 DUP4 ADD DUP5 PUSH2 0x4E0 JUMP JUMPDEST SWAP3 SWAP2 POP POP JUMP JUMPDEST PUSH1 0x0 PUSH1 0x20 DUP3 ADD SWAP1 POP DUP2 DUP2 SUB PUSH1 0x0 DUP4 ADD MSTORE PUSH2 0x587 DUP2 DUP5 PUSH2 0x4EF JUMP JUMPDEST SWAP1 POP SWAP3 SWAP2 POP POP JUMP JUMPDEST PUSH1 0x0 PUSH1 0x40 DUP3 ADD SWAP1 POP DUP2 DUP2 SUB PUSH1 0x0 DUP4 ADD MSTORE PUSH2 0x5A9 DUP2 DUP6 PUSH2 0x4EF JUMP JUMPDEST SWAP1 POP DUP2 DUP2 SUB PUSH1 0x20 DUP4 ADD MSTORE PUSH2 0x5BD DUP2 DUP5 PUSH2 0x4EF JUMP JUMPDEST SWAP1 POP SWAP4 SWAP3 POP POP POP JUMP JUMPDEST PUSH1 0x0 PUSH1 0x20 DUP3 ADD SWAP1 POP PUSH2 0x5DB PUSH1 0x0 DUP4 ADD DUP5 PUSH2 0x528 JUMP JUMPDEST SWAP3 SWAP2 POP POP JUMP JUMPDEST PUSH1 0x0 DUP2 MLOAD SWAP1 POP SWAP2 SWAP1 POP JUMP JUMPDEST PUSH1 0x0 DUP3 DUP3 MSTORE PUSH1 0x20 DUP3 ADD SWAP1 POP SWAP3 SWAP2 POP POP JUMP JUMPDEST PUSH1 0x0 PUSH2 0x608 DUP3 PUSH2 0x61B JUMP JUMPDEST SWAP1 POP SWAP2 SWAP1 POP JUMP JUMPDEST PUSH1 0x0 DUP2 ISZERO ISZERO SWAP1 POP SWAP2 SWAP1 POP JUMP JUMPDEST PUSH1 0x0 PUSH20 0xFFFFFFFFFFFFFFFFFFFFFFFFFFFFFFFFFFFFFFFF DUP3 AND SWAP1 POP SWAP2 SWAP1 POP JUMP JUMPDEST PUSH1 0x0 DUP2 SWAP1 POP SWAP2 SWAP1 POP JUMP JUMPDEST PUSH1 0x0 JUMPDEST DUP4 DUP2 LT ISZERO PUSH2 0x663 JUMPI DUP1 DUP3 ADD MLOAD DUP2 DUP5 ADD MSTORE PUSH1 0x20 DUP2 ADD SWAP1 POP PUSH2 0x648 JUMP JUMPDEST DUP4 DUP2 GT ISZERO PUSH2 0x672 JUMPI PUSH1 0x0 DUP5 DUP5 ADD MSTORE JUMPDEST POP POP POP POP JUMP JUMPDEST PUSH1 0x0 PUSH1 0x2 DUP3 DIV SWAP1 POP PUSH1 0x1 DUP3 AND DUP1 PUSH2 0x690 JUMPI PUSH1 0x7F DUP3 AND SWAP2 POP JUMPDEST PUSH1 0x20 DUP3 LT DUP2 EQ ISZERO PUSH2 0x6A4 JUMPI PUSH2 0x6A3 PUSH2 0x6AA JUMP JUMPDEST JUMPDEST POP SWAP2 SWAP1 POP JUMP JUMPDEST PUSH32 0x4E487B7100000000000000000000000000000000000000000000000000000000 PUSH1 0x0 MSTORE PUSH1 0x22 PUSH1 0x4 MSTORE PUSH1 0x24 PUSH1 0x0 REVERT JUMPDEST PUSH1 0x0 PUSH1 0x1F NOT PUSH1 0x1F DUP4 ADD AND SWAP1 POP SWAP2 SWAP1 POP JUMP INVALID LOG2 PUSH5 0x6970667358 0x22 SLT KECCAK256 0x4F GAS 0x5F PUSH6 0xAFFAFFB928F9 0x4C 0xE6 0x2D 0xE9 0xC9 CALL EXTCODECOPY SWAP9 LOG3 PUSH23 0xCACFD7D4A6FA9C7E9C3015D064736F6C63430008070033 LOG2 PUSH5 0x6970667358 0x22 SLT KECCAK256 0x29 PUSH22 0x9FC7BA5C5CD2D8EB0CA12397058E9D05B57962E40017 PUSH19 0x2C1BE0C1498E2F64736F6C6343000807003300 "
		},
		"gasEstimates": {
			"creation": {
				"codeDepositCost": "3126600",
				"executionCost": "37730",
				"totalCost": "3164330"
			},
			"external": {
				"addTree(string,string)": "infinite",
				"generateCredit(uint256[])": "infinite",
				"getTreeLoc(uint256)": "infinite",
				"owner()": "2511",
				"testAddTree()": "infinite",
				"testCombineTree()": "infinite",
				"testValidateTree()": "infinite",
				"verifyTree(uint256)": "infinite"
			}
		},
		"methodIdentifiers": {
			"addTree(string,string)": "49891979",
			"generateCredit(uint256[])": "ceb14098",
			"getTreeLoc(uint256)": "60eb9238",
			"owner()": "8da5cb5b",
			"testAddTree()": "9b0a6c95",
			"testCombineTree()": "dd905282",
			"testValidateTree()": "82874a45",
			"verifyTree(uint256)": "5f0de09d"
		}
	},
	"abi": [
		{
			"anonymous": false,
			"inputs": [
				{
					"indexed": false,
					"internalType": "address",
					"name": "owner",
					"type": "address"
				},
				{
					"indexed": false,
					"internalType": "address",
					"name": "newTree",
					"type": "address"
				},
				{
					"indexed": false,
					"internalType": "string",
					"name": "location",
					"type": "string"
				}
			],
			"name": "newTreeAdded",
			"type": "event"
		},
		{
			"inputs": [
				{
					"internalType": "string",
					"name": "treeType",
					"type": "string"
				},
				{
					"internalType": "string",
					"name": "location",
					"type": "string"
				}
			],
			"name": "addTree",
			"outputs": [
				{
					"internalType": "uint256",
					"name": "",
					"type": "uint256"
				}
			],
			"stateMutability": "nonpayable",
			"type": "function"
		},
		{
			"inputs": [
				{
					"internalType": "uint256[]",
					"name": "treeIndexes",
					"type": "uint256[]"
				}
			],
			"name": "generateCredit",
			"outputs": [
				{
					"internalType": "uint256",
					"name": "",
					"type": "uint256"
				}
			],
			"stateMutability": "nonpayable",
			"type": "function"
		},
		{
			"inputs": [
				{
					"internalType": "uint256",
					"name": "index",
					"type": "uint256"
				}
			],
			"name": "getTreeLoc",
			"outputs": [
				{
					"internalType": "string",
					"name": "",
					"type": "string"
				}
			],
			"stateMutability": "nonpayable",
			"type": "function"
		},
		{
			"inputs": [],
			"name": "owner",
			"outputs": [
				{
					"internalType": "address",
					"name": "",
					"type": "address"
				}
			],
			"stateMutability": "view",
			"type": "function"
		},
		{
			"inputs": [],
			"name": "testAddTree",
			"outputs": [],
			"stateMutability": "nonpayable",
			"type": "function"
		},
		{
			"inputs": [],
			"name": "testCombineTree",
			"outputs": [],
			"stateMutability": "nonpayable",
			"type": "function"
		},
		{
			"inputs": [],
			"name": "testValidateTree",
			"outputs": [],
			"stateMutability": "nonpayable",
			"type": "function"
		},
		{
			"inputs": [
				{
					"internalType": "uint256",
					"name": "idx",
					"type": "uint256"
				}
			],
			"name": "verifyTree",
			"outputs": [],
			"stateMutability": "nonpayable",
			"type": "function"
		}
	]
}